{
  "contractName": "LibraryApp",
  "abi": [
    {
      "constant": true,
      "inputs": [],
      "name": "operational",
      "outputs": [
        {
          "name": "",
          "type": "bool"
        }
      ],
      "payable": false,
      "stateMutability": "view",
      "type": "function",
      "signature": "0x0a401086"
    },
    {
      "constant": true,
      "inputs": [],
      "name": "appOwner",
      "outputs": [
        {
          "name": "",
          "type": "address"
        }
      ],
      "payable": false,
      "stateMutability": "view",
      "type": "function",
      "signature": "0x32b93a86"
    },
    {
      "inputs": [
        {
          "name": "libraryDataAddress",
          "type": "address"
        }
      ],
      "payable": false,
      "stateMutability": "nonpayable",
      "type": "constructor",
      "signature": "constructor"
    },
    {
      "anonymous": false,
      "inputs": [
        {
          "indexed": false,
          "name": "librarian",
          "type": "address"
        },
        {
          "indexed": false,
          "name": "added",
          "type": "bool"
        }
      ],
      "name": "Membership",
      "type": "event",
      "signature": "0x3e6a45ec201157bb776e57c6c277cef1ccd2c84f3995ea7fceba923b1d45cc3f"
    },
    {
      "anonymous": false,
      "inputs": [
        {
          "indexed": false,
          "name": "title",
          "type": "string"
        },
        {
          "indexed": false,
          "name": "author",
          "type": "string"
        },
        {
          "indexed": false,
          "name": "publishedDate",
          "type": "uint256"
        },
        {
          "indexed": false,
          "name": "originLibrarian",
          "type": "address"
        }
      ],
      "name": "BookAdded",
      "type": "event",
      "signature": "0x1101fdbc4c93937df772db09e0ce91eecd984be6cd25001914d3db63e1823fd8"
    },
    {
      "anonymous": false,
      "inputs": [
        {
          "indexed": false,
          "name": "title",
          "type": "string"
        },
        {
          "indexed": false,
          "name": "author",
          "type": "string"
        },
        {
          "indexed": false,
          "name": "publishedDate",
          "type": "uint256"
        }
      ],
      "name": "BookDeleted",
      "type": "event",
      "signature": "0xc18bdd3f039f64d2895c1f340e0b6f485dfe9aced5c67b4f2486cfd3c381c506"
    },
    {
      "anonymous": false,
      "inputs": [
        {
          "indexed": false,
          "name": "borrower",
          "type": "address"
        },
        {
          "indexed": false,
          "name": "author",
          "type": "string"
        },
        {
          "indexed": false,
          "name": "title",
          "type": "string"
        },
        {
          "indexed": false,
          "name": "publishedDate",
          "type": "uint256"
        }
      ],
      "name": "BookCheckedOut",
      "type": "event",
      "signature": "0xa87071afc06e0faee6aecc208e64c44708b99985dd7037af1d04a1f8c3602101"
    },
    {
      "anonymous": false,
      "inputs": [
        {
          "indexed": false,
          "name": "title",
          "type": "string"
        },
        {
          "indexed": false,
          "name": "author",
          "type": "string"
        },
        {
          "indexed": false,
          "name": "publishedDate",
          "type": "uint256"
        },
        {
          "indexed": false,
          "name": "originLibrarian",
          "type": "address"
        }
      ],
      "name": "BookCheckedIn",
      "type": "event",
      "signature": "0x46000173342ee4cc6dec976ff964300c3556838a9888bb93ebfcca8e8e3ef96c"
    },
    {
      "anonymous": false,
      "inputs": [
        {
          "indexed": false,
          "name": "title",
          "type": "string"
        },
        {
          "indexed": false,
          "name": "author",
          "type": "string"
        },
        {
          "indexed": false,
          "name": "publishedDate",
          "type": "uint256"
        },
        {
          "indexed": false,
          "name": "price",
          "type": "uint256"
        }
      ],
      "name": "BookPutOnSale",
      "type": "event",
      "signature": "0xa00922436d4d5f4077b8f402608fafbec99390efede9fa71aa0aa62e140c8f39"
    },
    {
      "anonymous": false,
      "inputs": [
        {
          "indexed": false,
          "name": "title",
          "type": "string"
        },
        {
          "indexed": false,
          "name": "author",
          "type": "string"
        },
        {
          "indexed": false,
          "name": "publishedDate",
          "type": "uint256"
        },
        {
          "indexed": false,
          "name": "price",
          "type": "uint256"
        }
      ],
      "name": "BookSold",
      "type": "event",
      "signature": "0xe87f198189f50a9d8128b051e558d2493664408dfab291fb255271252dabbdcd"
    },
    {
      "anonymous": false,
      "inputs": [
        {
          "indexed": false,
          "name": "recipient",
          "type": "address"
        }
      ],
      "name": "Paid",
      "type": "event",
      "signature": "0xb513ded1b789eae3295f6834e90c165f7259d31e80787c0794e8745ca3574b2c"
    },
    {
      "constant": true,
      "inputs": [
        {
          "name": "title",
          "type": "string"
        },
        {
          "name": "author",
          "type": "string"
        },
        {
          "name": "publishedDate",
          "type": "uint256"
        }
      ],
      "name": "getBookKey",
      "outputs": [
        {
          "name": "bookKey",
          "type": "bytes32"
        }
      ],
      "payable": false,
      "stateMutability": "pure",
      "type": "function",
      "signature": "0xa0a34b74"
    },
    {
      "constant": false,
      "inputs": [
        {
          "name": "librarian",
          "type": "address"
        },
        {
          "name": "add",
          "type": "bool"
        }
      ],
      "name": "setMembership",
      "outputs": [],
      "payable": false,
      "stateMutability": "nonpayable",
      "type": "function",
      "signature": "0x01746484"
    },
    {
      "constant": false,
      "inputs": [
        {
          "name": "title",
          "type": "string"
        },
        {
          "name": "author",
          "type": "string"
        },
        {
          "name": "publishedDate",
          "type": "uint256"
        }
      ],
      "name": "insertBook",
      "outputs": [],
      "payable": false,
      "stateMutability": "nonpayable",
      "type": "function",
      "signature": "0x5a950817"
    },
    {
      "constant": false,
      "inputs": [
        {
          "name": "title",
          "type": "string"
        },
        {
          "name": "author",
          "type": "string"
        },
        {
          "name": "publishedDate",
          "type": "uint256"
        }
      ],
      "name": "deleteBook",
      "outputs": [],
      "payable": false,
      "stateMutability": "nonpayable",
      "type": "function",
      "signature": "0x5df490c3"
    },
    {
      "constant": false,
      "inputs": [
        {
          "name": "borrower",
          "type": "address"
        },
        {
          "name": "title",
          "type": "string"
        },
        {
          "name": "author",
          "type": "string"
        },
        {
          "name": "publishedDate",
          "type": "uint256"
        },
        {
          "name": "notes",
          "type": "string"
        }
      ],
      "name": "checkOutBook",
      "outputs": [],
      "payable": false,
      "stateMutability": "nonpayable",
      "type": "function",
      "signature": "0xb841906b"
    },
    {
      "constant": false,
      "inputs": [
        {
          "name": "title",
          "type": "string"
        },
        {
          "name": "author",
          "type": "string"
        },
        {
          "name": "publishedDate",
          "type": "uint256"
        },
        {
          "name": "notes",
          "type": "string"
        }
      ],
      "name": "checkInBook",
      "outputs": [],
      "payable": false,
      "stateMutability": "nonpayable",
      "type": "function",
      "signature": "0x58d370b7"
    },
    {
      "constant": true,
      "inputs": [
        {
          "name": "title",
          "type": "string"
        },
        {
          "name": "author",
          "type": "string"
        },
        {
          "name": "publishedDate",
          "type": "uint256"
        }
      ],
      "name": "getBook",
      "outputs": [
        {
          "name": "originLibrarian",
          "type": "address"
        },
        {
          "name": "currentOwner",
          "type": "address"
        },
        {
          "name": "checkedOut",
          "type": "bool"
        },
        {
          "name": "transfersCount",
          "type": "uint256"
        },
        {
          "name": "lastTransferFrom",
          "type": "address"
        },
        {
          "name": "lastTransferNotes",
          "type": "string"
        },
        {
          "name": "price",
          "type": "uint256"
        }
      ],
      "payable": false,
      "stateMutability": "view",
      "type": "function",
      "signature": "0xfe88bac0"
    },
    {
      "constant": false,
      "inputs": [
        {
          "name": "title",
          "type": "string"
        },
        {
          "name": "author",
          "type": "string"
        },
        {
          "name": "publishedDate",
          "type": "uint256"
        },
        {
          "name": "price",
          "type": "uint256"
        },
        {
          "name": "notes",
          "type": "string"
        }
      ],
      "name": "sellBook",
      "outputs": [],
      "payable": false,
      "stateMutability": "nonpayable",
      "type": "function",
      "signature": "0x61912ae4"
    },
    {
      "constant": false,
      "inputs": [
        {
          "name": "title",
          "type": "string"
        },
        {
          "name": "author",
          "type": "string"
        },
        {
          "name": "publishedDate",
          "type": "uint256"
        }
      ],
      "name": "buyBook",
      "outputs": [],
      "payable": true,
      "stateMutability": "payable",
      "type": "function",
      "signature": "0xe43363d1"
    },
    {
      "constant": false,
      "inputs": [],
      "name": "withdraw",
      "outputs": [],
      "payable": false,
      "stateMutability": "nonpayable",
      "type": "function",
      "signature": "0x3ccfd60b"
    }
  ],
  "bytecode": "0x60806040526000600160146101000a81548160ff02191690831515021790555034801561002b57600080fd5b50604051602080620043d08339810180604052602081101561004c57600080fd5b810190808051906020019092919050505060018060146101000a81548160ff02191690831515021790555033600160006101000a81548173ffffffffffffffffffffffffffffffffffffffff021916908373ffffffffffffffffffffffffffffffffffffffff160217905550806000806101000a81548173ffffffffffffffffffffffffffffffffffffffff021916908373ffffffffffffffffffffffffffffffffffffffff160217905550506142c780620001096000396000f3fe6080604052600436106100ba576000357c0100000000000000000000000000000000000000000000000000000000900463ffffffff16806301746484146100bf5780630a4010861461011c57806332b93a861461014b5780633ccfd60b146101a257806358d370b7146101b95780635a950817146102f35780635df490c3146103d857806361912ae4146104bd578063a0a34b7414610601578063b841906b1461077e578063e43363d1146108d8578063fe88bac0146109b0575b600080fd5b3480156100cb57600080fd5b5061011a600480360360408110156100e257600080fd5b81019080803573ffffffffffffffffffffffffffffffffffffffff169060200190929190803515159060200190929190505050610bc0565b005b34801561012857600080fd5b5061013161112f565b604051808215151515815260200191505060405180910390f35b34801561015757600080fd5b50610160611142565b604051808273ffffffffffffffffffffffffffffffffffffffff1673ffffffffffffffffffffffffffffffffffffffff16815260200191505060405180910390f35b3480156101ae57600080fd5b506101b7611168565b005b3480156101c557600080fd5b506102f1600480360360808110156101dc57600080fd5b81019080803590602001906401000000008111156101f957600080fd5b82018360208201111561020b57600080fd5b8035906020019184600183028401116401000000008311171561022d57600080fd5b90919293919293908035906020019064010000000081111561024e57600080fd5b82018360208201111561026057600080fd5b8035906020019184600183028401116401000000008311171561028257600080fd5b909192939192939080359060200190929190803590602001906401000000008111156102ad57600080fd5b8201836020820111156102bf57600080fd5b803590602001918460018302840111640100000000831117156102e157600080fd5b909192939192939050505061134b565b005b3480156102ff57600080fd5b506103d66004803603606081101561031657600080fd5b810190808035906020019064010000000081111561033357600080fd5b82018360208201111561034557600080fd5b8035906020019184600183028401116401000000008311171561036757600080fd5b90919293919293908035906020019064010000000081111561038857600080fd5b82018360208201111561039a57600080fd5b803590602001918460018302840111640100000000831117156103bc57600080fd5b909192939192939080359060200190929190505050611c0f565b005b3480156103e457600080fd5b506104bb600480360360608110156103fb57600080fd5b810190808035906020019064010000000081111561041857600080fd5b82018360208201111561042a57600080fd5b8035906020019184600183028401116401000000008311171561044c57600080fd5b90919293919293908035906020019064010000000081111561046d57600080fd5b82018360208201111561047f57600080fd5b803590602001918460018302840111640100000000831117156104a157600080fd5b90919293919293908035906020019092919050505061208a565b005b3480156104c957600080fd5b506105ff600480360360a08110156104e057600080fd5b81019080803590602001906401000000008111156104fd57600080fd5b82018360208201111561050f57600080fd5b8035906020019184600183028401116401000000008311171561053157600080fd5b90919293919293908035906020019064010000000081111561055257600080fd5b82018360208201111561056457600080fd5b8035906020019184600183028401116401000000008311171561058657600080fd5b90919293919293908035906020019092919080359060200190929190803590602001906401000000008111156105bb57600080fd5b8201836020820111156105cd57600080fd5b803590602001918460018302840111640100000000831117156105ef57600080fd5b90919293919293905050506126ce565b005b34801561060d57600080fd5b506107686004803603606081101561062457600080fd5b810190808035906020019064010000000081111561064157600080fd5b82018360208201111561065357600080fd5b8035906020019184600183028401116401000000008311171561067557600080fd5b91908080601f016020809104026020016040519081016040528093929190818152602001838380828437600081840152601f19601f820116905080830192505050505050509192919290803590602001906401000000008111156106d857600080fd5b8201836020820111156106ea57600080fd5b8035906020019184600183028401116401000000008311171561070c57600080fd5b91908080601f016020809104026020016040519081016040528093929190818152602001838380828437600081840152601f19601f82011690508083019250505050505050919291929080359060200190929190505050612de3565b6040518082815260200191505060405180910390f35b34801561078a57600080fd5b506108d6600480360360a08110156107a157600080fd5b81019080803573ffffffffffffffffffffffffffffffffffffffff169060200190929190803590602001906401000000008111156107de57600080fd5b8201836020820111156107f057600080fd5b8035906020019184600183028401116401000000008311171561081257600080fd5b90919293919293908035906020019064010000000081111561083357600080fd5b82018360208201111561084557600080fd5b8035906020019184600183028401116401000000008311171561086757600080fd5b9091929391929390803590602001909291908035906020019064010000000081111561089257600080fd5b8201836020820111156108a457600080fd5b803590602001918460018302840111640100000000831117156108c657600080fd5b9091929391929390505050612ebf565b005b6109ae600480360360608110156108ee57600080fd5b810190808035906020019064010000000081111561090b57600080fd5b82018360208201111561091d57600080fd5b8035906020019184600183028401116401000000008311171561093f57600080fd5b90919293919293908035906020019064010000000081111561096057600080fd5b82018360208201111561097257600080fd5b8035906020019184600183028401116401000000008311171561099457600080fd5b9091929391929390803590602001909291905050506136bc565b005b3480156109bc57600080fd5b50610a93600480360360608110156109d357600080fd5b81019080803590602001906401000000008111156109f057600080fd5b820183602082011115610a0257600080fd5b80359060200191846001830284011164010000000083111715610a2457600080fd5b909192939192939080359060200190640100000000811115610a4557600080fd5b820183602082011115610a5757600080fd5b80359060200191846001830284011164010000000083111715610a7957600080fd5b909192939192939080359060200190929190505050613c84565b604051808873ffffffffffffffffffffffffffffffffffffffff1673ffffffffffffffffffffffffffffffffffffffff1681526020018773ffffffffffffffffffffffffffffffffffffffff1673ffffffffffffffffffffffffffffffffffffffff168152602001861515151581526020018581526020018473ffffffffffffffffffffffffffffffffffffffff1673ffffffffffffffffffffffffffffffffffffffff16815260200180602001838152602001828103825284818151815260200191508051906020019080838360005b83811015610b7f578082015181840152602081019050610b64565b50505050905090810190601f168015610bac5780820380516001836020036101000a031916815260200191505b509850505050505050505060405180910390f35b6000809054906101000a900473ffffffffffffffffffffffffffffffffffffffff1673ffffffffffffffffffffffffffffffffffffffff166399abc8eb6040518163ffffffff167c010000000000000000000000000000000000000000000000000000000002815260040160206040518083038186803b158015610c4357600080fd5b505afa158015610c57573d6000803e3d6000fd5b505050506040513d6020811015610c6d57600080fd5b810190808051906020019092919050505073ffffffffffffffffffffffffffffffffffffffff163373ffffffffffffffffffffffffffffffffffffffff16141515610d46576040517f08c379a000000000000000000000000000000000000000000000000000000000815260040180806020018281038252602e8152602001807f4f6e6c7920746865206c696272617279206f776e65722063616e20706572666f81526020017f726d207468697320616374696f6e00000000000000000000000000000000000081525060400191505060405180910390fd5b600160149054906101000a900460ff161515610df0576040517f08c379a00000000000000000000000000000000000000000000000000000000081526004018080602001828103825260258152602001807f436f6e74726163742069732063757272656e746c79206e6f74206f706572617481526020017f696f6e616c00000000000000000000000000000000000000000000000000000081525060400191505060405180910390fd5b818160008060009054906101000a900473ffffffffffffffffffffffffffffffffffffffff1673ffffffffffffffffffffffffffffffffffffffff1663c3c5a547846040518263ffffffff167c0100000000000000000000000000000000000000000000000000000000028152600401808273ffffffffffffffffffffffffffffffffffffffff1673ffffffffffffffffffffffffffffffffffffffff16815260200191505060206040518083038186803b158015610eae57600080fd5b505afa158015610ec2573d6000803e3d6000fd5b505050506040513d6020811015610ed857600080fd5b8101908080519060200190929190505050905080151582151514151515610fd9576040517f08c379a00000000000000000000000000000000000000000000000000000000081526004018080602001828103825260668152602001807f54686973206c696272617269616e20697320616c72656164792072656769737481526020017f657265642028696620747279696e6720746f2061646429206f72206973206e6f81526020017f742072656769737465726564207965742028696620747279696e6720746f207281526020017f656d6f766529000000000000000000000000000000000000000000000000000081525060800191505060405180910390fd5b6000809054906101000a900473ffffffffffffffffffffffffffffffffffffffff1673ffffffffffffffffffffffffffffffffffffffff16630174648486866040518363ffffffff167c0100000000000000000000000000000000000000000000000000000000028152600401808373ffffffffffffffffffffffffffffffffffffffff1673ffffffffffffffffffffffffffffffffffffffff1681526020018215151515815260200192505050600060405180830381600087803b1580156110a157600080fd5b505af11580156110b5573d6000803e3d6000fd5b505050507f3e6a45ec201157bb776e57c6c277cef1ccd2c84f3995ea7fceba923b1d45cc3f8585604051808373ffffffffffffffffffffffffffffffffffffffff1673ffffffffffffffffffffffffffffffffffffffff168152602001821515151581526020019250505060405180910390a15050505050565b600160149054906101000a900460ff1681565b600160009054906101000a900473ffffffffffffffffffffffffffffffffffffffff1681565b600160149054906101000a900460ff161515611212576040517f08c379a00000000000000000000000000000000000000000000000000000000081526004018080602001828103825260258152602001807f436f6e74726163742069732063757272656e746c79206e6f74206f706572617481526020017f696f6e616c00000000000000000000000000000000000000000000000000000081525060400191505060405180910390fd5b6000809054906101000a900473ffffffffffffffffffffffffffffffffffffffff1673ffffffffffffffffffffffffffffffffffffffff166351cff8d9336040518263ffffffff167c0100000000000000000000000000000000000000000000000000000000028152600401808273ffffffffffffffffffffffffffffffffffffffff1673ffffffffffffffffffffffffffffffffffffffff168152602001915050600060405180830381600087803b1580156112ce57600080fd5b505af11580156112e2573d6000803e3d6000fd5b505050507fb513ded1b789eae3295f6834e90c165f7259d31e80787c0794e8745ca3574b2c33604051808273ffffffffffffffffffffffffffffffffffffffff1673ffffffffffffffffffffffffffffffffffffffff16815260200191505060405180910390a1565b600160149054906101000a900460ff1615156113f5576040517f08c379a00000000000000000000000000000000000000000000000000000000081526004018080602001828103825260258152602001807f436f6e74726163742069732063757272656e746c79206e6f74206f706572617481526020017f696f6e616c00000000000000000000000000000000000000000000000000000081525060400191505060405180910390fd5b86868080601f016020809104026020016040519081016040528093929190818152602001838380828437600081840152601f19601f8201169050808301925050505050505085858080601f016020809104026020016040519081016040528093929190818152602001838380828437600081840152601f19601f8201169050808301925050505050505084600061148d848484612de3565b90506000809054906101000a900473ffffffffffffffffffffffffffffffffffffffff1673ffffffffffffffffffffffffffffffffffffffff1663e8126370826040518263ffffffff167c01000000000000000000000000000000000000000000000000000000000281526004018082815260200191505060206040518083038186803b15801561151d57600080fd5b505afa158015611531573d6000803e3d6000fd5b505050506040513d602081101561154757600080fd5b810190808051906020019092919050505015156115f2576040517f08c379a00000000000000000000000000000000000000000000000000000000081526004018080602001828103825260248152602001807f5468697320626f6f6b206973206e6f742070617274206f6620746865206c696281526020017f726172790000000000000000000000000000000000000000000000000000000081525060400191505060405180910390fd5b6000809054906101000a900473ffffffffffffffffffffffffffffffffffffffff1673ffffffffffffffffffffffffffffffffffffffff1663c3c5a547336040518263ffffffff167c0100000000000000000000000000000000000000000000000000000000028152600401808273ffffffffffffffffffffffffffffffffffffffff1673ffffffffffffffffffffffffffffffffffffffff16815260200191505060206040518083038186803b1580156116ac57600080fd5b505afa1580156116c0573d6000803e3d6000fd5b505050506040513d60208110156116d657600080fd5b8101908080519060200190929190505050151515611782576040517f08c379a00000000000000000000000000000000000000000000000000000000081526004018080602001828103825260228152602001807f4c696272617269616e732063616e6e6f74206272696e67206261636b20626f6f81526020017f6b7300000000000000000000000000000000000000000000000000000000000081525060400191505060405180910390fd5b60006118178c8c8080601f016020809104026020016040519081016040528093929190818152602001838380828437600081840152601f19601f820116905080830192505050505050508b8b8080601f016020809104026020016040519081016040528093929190818152602001838380828437600081840152601f19601f820116905080830192505050505050508a612de3565b90506000809054906101000a900473ffffffffffffffffffffffffffffffffffffffff1673ffffffffffffffffffffffffffffffffffffffff16638b59c733826040518263ffffffff167c01000000000000000000000000000000000000000000000000000000000281526004018082815260200191505060206040518083038186803b1580156118a757600080fd5b505afa1580156118bb573d6000803e3d6000fd5b505050506040513d60208110156118d157600080fd5b81019080805190602001909291905050501515611956576040517f08c379a000000000000000000000000000000000000000000000000000000000815260040180806020018281038252601f8152602001807f5468697320626f6f6b20697320616c726561647920636865636b656420696e0081525060200191505060405180910390fd5b6000809054906101000a900473ffffffffffffffffffffffffffffffffffffffff1673ffffffffffffffffffffffffffffffffffffffff1663c28e5b50828989336040518563ffffffff167c010000000000000000000000000000000000000000000000000000000002815260040180858152602001806020018373ffffffffffffffffffffffffffffffffffffffff1673ffffffffffffffffffffffffffffffffffffffff1681526020018281038252858582818152602001925080828437600081840152601f19601f82011690508083019250505095505050505050600060405180830381600087803b158015611a4e57600080fd5b505af1158015611a62573d6000803e3d6000fd5b505050507f46000173342ee4cc6dec976ff964300c3556838a9888bb93ebfcca8e8e3ef96c8c8c8c8c8c6000809054906101000a900473ffffffffffffffffffffffffffffffffffffffff1673ffffffffffffffffffffffffffffffffffffffff166338ae8bbe886040518263ffffffff167c01000000000000000000000000000000000000000000000000000000000281526004018082815260200191505060206040518083038186803b158015611b1a57600080fd5b505afa158015611b2e573d6000803e3d6000fd5b505050506040513d6020811015611b4457600080fd5b81019080805190602001909291905050506040518080602001806020018581526020018473ffffffffffffffffffffffffffffffffffffffff1673ffffffffffffffffffffffffffffffffffffffff1681526020018381038352898982818152602001925080828437600081840152601f19601f8201169050808301925050508381038252878782818152602001925080828437600081840152601f19601f8201169050808301925050509850505050505050505060405180910390a1505050505050505050505050565b600160149054906101000a900460ff161515611cb9576040517f08c379a00000000000000000000000000000000000000000000000000000000081526004018080602001828103825260258152602001807f436f6e74726163742069732063757272656e746c79206e6f74206f706572617481526020017f696f6e616c00000000000000000000000000000000000000000000000000000081525060400191505060405180910390fd5b6000809054906101000a900473ffffffffffffffffffffffffffffffffffffffff1673ffffffffffffffffffffffffffffffffffffffff1663c3c5a547336040518263ffffffff167c0100000000000000000000000000000000000000000000000000000000028152600401808273ffffffffffffffffffffffffffffffffffffffff1673ffffffffffffffffffffffffffffffffffffffff16815260200191505060206040518083038186803b158015611d7357600080fd5b505afa158015611d87573d6000803e3d6000fd5b505050506040513d6020811015611d9d57600080fd5b81019080805190602001909291905050501515611e48576040517f08c379a00000000000000000000000000000000000000000000000000000000081526004018080602001828103825260368152602001807f4d7573742062652072656769737465726564206173206c696272617269616e2081526020017f746f20706572666f726d207468697320616374696f6e0000000000000000000081525060400191505060405180910390fd5b6000809054906101000a900473ffffffffffffffffffffffffffffffffffffffff1673ffffffffffffffffffffffffffffffffffffffff166346ebc5e08686868686336040518763ffffffff167c01000000000000000000000000000000000000000000000000000000000281526004018080602001806020018581526020018473ffffffffffffffffffffffffffffffffffffffff1673ffffffffffffffffffffffffffffffffffffffff1681526020018381038352898982818152602001925080828437600081840152601f19601f8201169050808301925050508381038252878782818152602001925080828437600081840152601f19601f82011690508083019250505098505050505050505050602060405180830381600087803b158015611f7457600080fd5b505af1158015611f88573d6000803e3d6000fd5b505050506040513d6020811015611f9e57600080fd5b8101908080519060200190929190505050507f1101fdbc4c93937df772db09e0ce91eecd984be6cd25001914d3db63e1823fd88585858585336040518080602001806020018581526020018473ffffffffffffffffffffffffffffffffffffffff1673ffffffffffffffffffffffffffffffffffffffff1681526020018381038352898982818152602001925080828437600081840152601f19601f8201169050808301925050508381038252878782818152602001925080828437600081840152601f19601f8201169050808301925050509850505050505050505060405180910390a15050505050565b600160149054906101000a900460ff161515612134576040517f08c379a00000000000000000000000000000000000000000000000000000000081526004018080602001828103825260258152602001807f436f6e74726163742069732063757272656e746c79206e6f74206f706572617481526020017f696f6e616c00000000000000000000000000000000000000000000000000000081525060400191505060405180910390fd5b6000809054906101000a900473ffffffffffffffffffffffffffffffffffffffff1673ffffffffffffffffffffffffffffffffffffffff1663c3c5a547336040518263ffffffff167c0100000000000000000000000000000000000000000000000000000000028152600401808273ffffffffffffffffffffffffffffffffffffffff1673ffffffffffffffffffffffffffffffffffffffff16815260200191505060206040518083038186803b1580156121ee57600080fd5b505afa158015612202573d6000803e3d6000fd5b505050506040513d602081101561221857600080fd5b810190808051906020019092919050505015156122c3576040517f08c379a00000000000000000000000000000000000000000000000000000000081526004018080602001828103825260368152602001807f4d7573742062652072656769737465726564206173206c696272617269616e2081526020017f746f20706572666f726d207468697320616374696f6e0000000000000000000081525060400191505060405180910390fd5b84848080601f016020809104026020016040519081016040528093929190818152602001838380828437600081840152601f19601f8201169050808301925050505050505083838080601f016020809104026020016040519081016040528093929190818152602001838380828437600081840152601f19601f8201169050808301925050505050505082600061235b848484612de3565b90506000809054906101000a900473ffffffffffffffffffffffffffffffffffffffff1673ffffffffffffffffffffffffffffffffffffffff1663e8126370826040518263ffffffff167c01000000000000000000000000000000000000000000000000000000000281526004018082815260200191505060206040518083038186803b1580156123eb57600080fd5b505afa1580156123ff573d6000803e3d6000fd5b505050506040513d602081101561241557600080fd5b810190808051906020019092919050505015156124c0576040517f08c379a00000000000000000000000000000000000000000000000000000000081526004018080602001828103825260248152602001807f5468697320626f6f6b206973206e6f742070617274206f6620746865206c696281526020017f726172790000000000000000000000000000000000000000000000000000000081525060400191505060405180910390fd5b60006125558a8a8080601f016020809104026020016040519081016040528093929190818152602001838380828437600081840152601f19601f8201169050808301925050505050505089898080601f016020809104026020016040519081016040528093929190818152602001838380828437600081840152601f19601f8201169050808301925050505050505088612de3565b90506000809054906101000a900473ffffffffffffffffffffffffffffffffffffffff1673ffffffffffffffffffffffffffffffffffffffff166363dcd599826040518263ffffffff167c010000000000000000000000000000000000000000000000000000000002815260040180828152602001915050602060405180830381600087803b1580156125e757600080fd5b505af11580156125fb573d6000803e3d6000fd5b505050506040513d602081101561261157600080fd5b8101908080519060200190929190505050507fc18bdd3f039f64d2895c1f340e0b6f485dfe9aced5c67b4f2486cfd3c381c5068a8a8a8a8a6040518080602001806020018481526020018381038352888882818152602001925080828437600081840152601f19601f8201169050808301925050508381038252868682818152602001925080828437600081840152601f19601f82011690508083019250505097505050505050505060405180910390a150505050505050505050565b87878080601f016020809104026020016040519081016040528093929190818152602001838380828437600081840152601f19601f8201169050808301925050505050505086868080601f016020809104026020016040519081016040528093929190818152602001838380828437600081840152601f19601f82011690508083019250505050505050856000612766848484612de3565b90506000809054906101000a900473ffffffffffffffffffffffffffffffffffffffff1673ffffffffffffffffffffffffffffffffffffffff1663e8126370826040518263ffffffff167c01000000000000000000000000000000000000000000000000000000000281526004018082815260200191505060206040518083038186803b1580156127f657600080fd5b505afa15801561280a573d6000803e3d6000fd5b505050506040513d602081101561282057600080fd5b810190808051906020019092919050505015156128cb576040517f08c379a00000000000000000000000000000000000000000000000000000000081526004018080602001828103825260248152602001807f5468697320626f6f6b206973206e6f742070617274206f6620746865206c696281526020017f726172790000000000000000000000000000000000000000000000000000000081525060400191505060405180910390fd5b600160149054906101000a900460ff161515612975576040517f08c379a00000000000000000000000000000000000000000000000000000000081526004018080602001828103825260258152602001807f436f6e74726163742069732063757272656e746c79206e6f74206f706572617481526020017f696f6e616c00000000000000000000000000000000000000000000000000000081525060400191505060405180910390fd5b6000871115156129ed576040517f08c379a00000000000000000000000000000000000000000000000000000000081526004018080602001828103825260168152602001807f53616c65207072696365206d757374206265203e20300000000000000000000081525060200191505060405180910390fd5b6000612a828d8d8080601f016020809104026020016040519081016040528093929190818152602001838380828437600081840152601f19601f820116905080830192505050505050508c8c8080601f016020809104026020016040519081016040528093929190818152602001838380828437600081840152601f19601f820116905080830192505050505050508b612de3565b90503373ffffffffffffffffffffffffffffffffffffffff166000809054906101000a900473ffffffffffffffffffffffffffffffffffffffff1673ffffffffffffffffffffffffffffffffffffffff16633ae59206836040518263ffffffff167c01000000000000000000000000000000000000000000000000000000000281526004018082815260200191505060206040518083038186803b158015612b2957600080fd5b505afa158015612b3d573d6000803e3d6000fd5b505050506040513d6020811015612b5357600080fd5b810190808051906020019092919050505073ffffffffffffffffffffffffffffffffffffffff16141515612c15576040517f08c379a00000000000000000000000000000000000000000000000000000000081526004018080602001828103825260258152602001807f596f752063616e6e6f742073616c65206120626f6f6b20796f7520646f206e6f81526020017f74206f776e00000000000000000000000000000000000000000000000000000081525060400191505060405180910390fd5b6000809054906101000a900473ffffffffffffffffffffffffffffffffffffffff1673ffffffffffffffffffffffffffffffffffffffff1663f0950eb1828a338b8b6040518663ffffffff167c0100000000000000000000000000000000000000000000000000000000028152600401808681526020018581526020018473ffffffffffffffffffffffffffffffffffffffff1673ffffffffffffffffffffffffffffffffffffffff168152602001806020018281038252848482818152602001925080828437600081840152601f19601f8201169050808301925050509650505050505050600060405180830381600087803b158015612d1557600080fd5b505af1158015612d29573d6000803e3d6000fd5b505050507fa00922436d4d5f4077b8f402608fafbec99390efede9fa71aa0aa62e140c8f398d8d8d8d8d8d6040518080602001806020018581526020018481526020018381038352898982818152602001925080828437600081840152601f19601f8201169050808301925050508381038252878782818152602001925080828437600081840152601f19601f8201169050808301925050509850505050505050505060405180910390a150505050505050505050505050565b60008383836040516020018084805190602001908083835b602083101515612e205780518252602082019150602081019050602083039250612dfb565b6001836020036101000a03801982511681845116808217855250505050505090500183805190602001908083835b602083101515612e735780518252602082019150602081019050602083039250612e4e565b6001836020036101000a03801982511681845116808217855250505050505090500182815260200193505050506040516020818303038152906040528051906020012090509392505050565b6000809054906101000a900473ffffffffffffffffffffffffffffffffffffffff1673ffffffffffffffffffffffffffffffffffffffff1663c3c5a547336040518263ffffffff167c0100000000000000000000000000000000000000000000000000000000028152600401808273ffffffffffffffffffffffffffffffffffffffff1673ffffffffffffffffffffffffffffffffffffffff16815260200191505060206040518083038186803b158015612f7957600080fd5b505afa158015612f8d573d6000803e3d6000fd5b505050506040513d6020811015612fa357600080fd5b8101908080519060200190929190505050151561304e576040517f08c379a00000000000000000000000000000000000000000000000000000000081526004018080602001828103825260368152602001807f4d7573742062652072656769737465726564206173206c696272617269616e2081526020017f746f20706572666f726d207468697320616374696f6e0000000000000000000081525060400191505060405180910390fd5b600160149054906101000a900460ff1615156130f8576040517f08c379a00000000000000000000000000000000000000000000000000000000081526004018080602001828103825260258152602001807f436f6e74726163742069732063757272656e746c79206e6f74206f706572617481526020017f696f6e616c00000000000000000000000000000000000000000000000000000081525060400191505060405180910390fd5b86868080601f016020809104026020016040519081016040528093929190818152602001838380828437600081840152601f19601f8201169050808301925050505050505085858080601f016020809104026020016040519081016040528093929190818152602001838380828437600081840152601f19601f82011690508083019250505050505050846000613190848484612de3565b90506000809054906101000a900473ffffffffffffffffffffffffffffffffffffffff1673ffffffffffffffffffffffffffffffffffffffff1663e8126370826040518263ffffffff167c01000000000000000000000000000000000000000000000000000000000281526004018082815260200191505060206040518083038186803b15801561322057600080fd5b505afa158015613234573d6000803e3d6000fd5b505050506040513d602081101561324a57600080fd5b810190808051906020019092919050505015156132f5576040517f08c379a00000000000000000000000000000000000000000000000000000000081526004018080602001828103825260248152602001807f5468697320626f6f6b206973206e6f742070617274206f6620746865206c696281526020017f726172790000000000000000000000000000000000000000000000000000000081525060400191505060405180910390fd5b600061338a8c8c8080601f016020809104026020016040519081016040528093929190818152602001838380828437600081840152601f19601f820116905080830192505050505050508b8b8080601f016020809104026020016040519081016040528093929190818152602001838380828437600081840152601f19601f820116905080830192505050505050508a612de3565b90506000809054906101000a900473ffffffffffffffffffffffffffffffffffffffff1673ffffffffffffffffffffffffffffffffffffffff16638b59c733826040518263ffffffff167c01000000000000000000000000000000000000000000000000000000000281526004018082815260200191505060206040518083038186803b15801561341a57600080fd5b505afa15801561342e573d6000803e3d6000fd5b505050506040513d602081101561344457600080fd5b81019080805190602001909291905050501515156134ca576040517f08c379a00000000000000000000000000000000000000000000000000000000081526004018080602001828103825260208152602001807f5468697320626f6f6b20697320616c726561647920636865636b6564206f757481525060200191505060405180910390fd5b6000809054906101000a900473ffffffffffffffffffffffffffffffffffffffff1673ffffffffffffffffffffffffffffffffffffffff1663906158498e838a8a6040518563ffffffff167c0100000000000000000000000000000000000000000000000000000000028152600401808573ffffffffffffffffffffffffffffffffffffffff1673ffffffffffffffffffffffffffffffffffffffff168152602001848152602001806020018281038252848482818152602001925080828437600081840152601f19601f82011690508083019250505095505050505050600060405180830381600087803b1580156135c257600080fd5b505af11580156135d6573d6000803e3d6000fd5b505050507fa87071afc06e0faee6aecc208e64c44708b99985dd7037af1d04a1f8c36021018d8d8d8d8d8d604051808773ffffffffffffffffffffffffffffffffffffffff1673ffffffffffffffffffffffffffffffffffffffff16815260200180602001806020018481526020018381038352888882818152602001925080828437600081840152601f19601f8201169050808301925050508381038252868682818152602001925080828437600081840152601f19601f8201169050808301925050509850505050505050505060405180910390a150505050505050505050505050565b600160149054906101000a900460ff161515613766576040517f08c379a00000000000000000000000000000000000000000000000000000000081526004018080602001828103825260258152602001807f436f6e74726163742069732063757272656e746c79206e6f74206f706572617481526020017f696f6e616c00000000000000000000000000000000000000000000000000000081525060400191505060405180910390fd5b60006137fb86868080601f016020809104026020016040519081016040528093929190818152602001838380828437600081840152601f19601f8201169050808301925050505050505085858080601f016020809104026020016040519081016040528093929190818152602001838380828437600081840152601f19601f8201169050808301925050505050505084612de3565b905060008060009054906101000a900473ffffffffffffffffffffffffffffffffffffffff1673ffffffffffffffffffffffffffffffffffffffff1663c2b025eb836040518263ffffffff167c01000000000000000000000000000000000000000000000000000000000281526004018082815260200191505060206040518083038186803b15801561388d57600080fd5b505afa1580156138a1573d6000803e3d6000fd5b505050506040513d60208110156138b757600080fd5b8101908080519060200190929190505050905060008060009054906101000a900473ffffffffffffffffffffffffffffffffffffffff1673ffffffffffffffffffffffffffffffffffffffff1663c2b025eb846040518263ffffffff167c01000000000000000000000000000000000000000000000000000000000281526004018082815260200191505060206040518083038186803b15801561395a57600080fd5b505afa15801561396e573d6000803e3d6000fd5b505050506040513d602081101561398457600080fd5b8101908080519060200190929190505050111515613a0a576040517f08c379a00000000000000000000000000000000000000000000000000000000081526004018080602001828103825260198152602001807f5468697320626f6f6b206973206e6f7420666f722073616c650000000000000081525060200191505060405180910390fd5b803410151515613aa8576040517f08c379a00000000000000000000000000000000000000000000000000000000081526004018080602001828103825260268152602001807f46756e64732073656e7420646f206e6f7420636f7665722074686520626f6f6b81526020017f207072696365000000000000000000000000000000000000000000000000000081525060400191505060405180910390fd5b600081340390503373ffffffffffffffffffffffffffffffffffffffff166108fc829081150290604051600060405180830381858888f19350505050158015613af5573d6000803e3d6000fd5b506000809054906101000a900473ffffffffffffffffffffffffffffffffffffffff1673ffffffffffffffffffffffffffffffffffffffff16630e84a6483485336040518463ffffffff167c0100000000000000000000000000000000000000000000000000000000028152600401808381526020018273ffffffffffffffffffffffffffffffffffffffff1673ffffffffffffffffffffffffffffffffffffffff168152602001925050506000604051808303818588803b158015613bba57600080fd5b505af1158015613bce573d6000803e3d6000fd5b50505050507fe87f198189f50a9d8128b051e558d2493664408dfab291fb255271252dabbdcd8888888888876040518080602001806020018581526020018481526020018381038352898982818152602001925080828437600081840152601f19601f8201169050808301925050508381038252878782818152602001925080828437600081840152601f19601f8201169050808301925050509850505050505050505060405180910390a15050505050505050565b60008060008060006060600080613d248d8d8080601f016020809104026020016040519081016040528093929190818152602001838380828437600081840152601f19601f820116905080830192505050505050508c8c8080601f016020809104026020016040519081016040528093929190818152602001838380828437600081840152601f19601f820116905080830192505050505050508b612de3565b90506000809054906101000a900473ffffffffffffffffffffffffffffffffffffffff1673ffffffffffffffffffffffffffffffffffffffff166338ae8bbe826040518263ffffffff167c01000000000000000000000000000000000000000000000000000000000281526004018082815260200191505060206040518083038186803b158015613db457600080fd5b505afa158015613dc8573d6000803e3d6000fd5b505050506040513d6020811015613dde57600080fd5b810190808051906020019092919050505097506000809054906101000a900473ffffffffffffffffffffffffffffffffffffffff1673ffffffffffffffffffffffffffffffffffffffff16633ae59206826040518263ffffffff167c01000000000000000000000000000000000000000000000000000000000281526004018082815260200191505060206040518083038186803b158015613e7f57600080fd5b505afa158015613e93573d6000803e3d6000fd5b505050506040513d6020811015613ea957600080fd5b810190808051906020019092919050505096506000809054906101000a900473ffffffffffffffffffffffffffffffffffffffff1673ffffffffffffffffffffffffffffffffffffffff16638b59c733826040518263ffffffff167c01000000000000000000000000000000000000000000000000000000000281526004018082815260200191505060206040518083038186803b158015613f4a57600080fd5b505afa158015613f5e573d6000803e3d6000fd5b505050506040513d6020811015613f7457600080fd5b810190808051906020019092919050505095506000809054906101000a900473ffffffffffffffffffffffffffffffffffffffff1673ffffffffffffffffffffffffffffffffffffffff1663c0f9bc42826040518263ffffffff167c01000000000000000000000000000000000000000000000000000000000281526004018082815260200191505060206040518083038186803b15801561401557600080fd5b505afa158015614029573d6000803e3d6000fd5b505050506040513d602081101561403f57600080fd5b810190808051906020019092919050505094506000809054906101000a900473ffffffffffffffffffffffffffffffffffffffff1673ffffffffffffffffffffffffffffffffffffffff16635b1b5d90826140a460018961427990919063ffffffff16565b6040518363ffffffff167c0100000000000000000000000000000000000000000000000000000000028152600401808381526020018281526020019250505060006040518083038186803b1580156140fb57600080fd5b505afa15801561410f573d6000803e3d6000fd5b505050506040513d6000823e3d601f19601f82011682018060405250604081101561413957600080fd5b8101908080519060200190929190805164010000000081111561415b57600080fd5b8281019050602081018481111561417157600080fd5b815185600182028301116401000000008211171561418e57600080fd5b505092919050505080945081955050506000809054906101000a900473ffffffffffffffffffffffffffffffffffffffff1673ffffffffffffffffffffffffffffffffffffffff1663c2b025eb826040518263ffffffff167c01000000000000000000000000000000000000000000000000000000000281526004018082815260200191505060206040518083038186803b15801561422c57600080fd5b505afa158015614240573d6000803e3d6000fd5b505050506040513d602081101561425657600080fd5b8101908080519060200190929190505050915050959b949a509550955095509550565b600082821115151561428a57600080fd5b60008284039050809150509291505056fea165627a7a72305820f0e41e9104c0a1078838acb16d0b81a237ac70e4bcf593aa769b9b797622572e0029",
  "source": "pragma solidity ^0.5.0;\nimport \"../node_modules/openzeppelin-solidity/contracts/math/SafeMath.sol\";\n\n\n// Interface contract\ninterface LibraryData {\n    function setMembership(address librarian, bool add) external;\n\n    function insertBook(\n        string calldata author,\n        string calldata title,\n        uint publishedDate,\n        address originLibrarian\n    )\n    external returns(uint);\n\n    function deleteBook(bytes32 bookKey) external returns (uint);\n\n    function checkOutBook(address borrower, bytes32 bookKey, string calldata notes) external;\n\n    function checkInBook\n    (\n        bytes32 bookKey,\n        string calldata notes,\n        address from\n    )\n    external;\n\n    function sellBook\n    (\n        bytes32 bookKey,\n        uint price,\n        address seller,\n        string calldata notes\n    )\n    external;\n\n    function buyBook(bytes32 bookKey, address buyer) external payable;\n    function withdraw(address recipient) external;\n\n    function libraryOwner() external view returns(address);\n    function isRegistered(address librarian) external view returns(bool);\n\n    function getBookOwner(bytes32 bookKey)\n    external\n    view\n    returns (address);\n\n    function getBookOriginLibrarian(bytes32 bookKey)\n    external\n    view\n    returns (address);\n\n    function isBook(bytes32 bookKey) external view returns(bool);\n    function isCheckedOut(bytes32 bookKey) external view returns (bool);\n    function getTransfer(bytes32 bookKey, uint index) external view returns (address from, string memory notes);\n    function getTransfersCount(bytes32 bookKey) external view returns (uint);\n    function getBookPrice(bytes32 bookKey) external view returns (uint);\n}\n\n\ncontract LibraryApp {\n    using SafeMath for uint;\n\n    // ----------------- VARIABLES\n    LibraryData libraryData;\n    address public appOwner;\n    bool public operational = false;\n    // ----------------- EVENTS\n    event Membership(address librarian, bool added);\n    event BookAdded(string title, string author, uint publishedDate, address originLibrarian);\n    event BookDeleted(string title, string author, uint publishedDate);\n\n    event BookCheckedOut(\n        address borrower,\n        string author,\n        string title,\n        uint publishedDate);\n    event BookCheckedIn(\n        string title,\n        string author,\n        uint publishedDate,\n        address originLibrarian);\n    event BookPutOnSale(\n        string title,\n        string author,\n        uint publishedDate,\n        uint price\n    );\n    event BookSold(\n        string title,\n        string author,\n        uint publishedDate,\n        uint price\n    );\n    event Paid(address recipient);\n\n    // ---------------- CONSTRUCTOR\n    constructor (address libraryDataAddress) public {\n        operational = true;\n        appOwner = msg.sender;\n        libraryData = LibraryData(libraryDataAddress);\n    }\n\n    // ----------------- MODIFIERS\n    modifier isAppOwner() {\n        require(msg.sender == appOwner, \"Caller is not App owner\");\n        _;\n    }\n\n    modifier isLibraryOwner() {\n        require(\n            msg.sender == libraryData.libraryOwner(),\n            \"Only the library owner can perform this action\"\n        );\n        _;\n    }\n\n    modifier isOperational() {\n        require(operational, \"Contract is currently not operational\");\n        _;\n    }\n\n    // To avoid spending gas trying to put the contract in a state it already is in\n    modifier differentModeRequest(bool status) {\n        require(status != operational, \"Contract already in the state requested\");\n        _;\n    }\n\n    /* Similarly we don't want to spend gas trying to add already regsitered librarians\n    or to remove non registered librarians\n    */\n    modifier differentMembershipRequest(address librarian, bool add) {\n        bool registered = libraryData.isRegistered(librarian);\n        require(\n            add != registered,\n            \"This librarian is already registered (if trying to add) or is not registered yet (if trying to remove)\"\n        );\n        _;\n    }\n\n    // Check is a librarian is registered\n    modifier isLibrarian() {\n        require(\n            libraryData.isRegistered(msg.sender),\n            \"Must be registered as librarian to perform this action\"\n        );\n        _;\n    }\n\n    modifier bookExists(\n        string memory title,\n        string memory author,\n        uint publishedDate\n    ) {\n        bytes32 bookKey = getBookKey(title, author, publishedDate);\n        require(libraryData.isBook(bookKey), \"This book is not part of the library\");\n        _;\n    }\n\n    // ----------------- HELPERS FUNCTIONS\n    function getBookKey\n    (\n        string memory title,\n        string memory author,\n        uint publishedDate\n    )\n    public\n    pure\n    returns(bytes32 bookKey)\n    {\n        bookKey = keccak256(abi.encodePacked(title, author, publishedDate));\n    }\n\n    // ----------------- SMART CONTRACT FUNCTIONS\n    function setMembership(address librarian, bool add)\n    external\n    isLibraryOwner\n    isOperational\n    differentMembershipRequest(librarian, add)\n    {\n        libraryData.setMembership(librarian, add);\n        emit Membership(librarian, add);\n    }\n\n    function insertBook\n    (\n        string calldata title,\n        string calldata author,\n        uint publishedDate\n    )\n    external\n    isOperational\n    isLibrarian\n    {\n        libraryData.insertBook(title, author, publishedDate, msg.sender);\n        emit BookAdded(title, author, publishedDate, msg.sender);\n    }\n\n    function deleteBook\n    (\n        string calldata title,\n        string calldata author,\n        uint publishedDate\n    )\n    external\n    isOperational\n    isLibrarian\n    bookExists(title, author, publishedDate)\n    {\n        bytes32 bookKey = getBookKey(title, author, publishedDate);\n        libraryData.deleteBook(bookKey);\n        emit BookDeleted(title, author, publishedDate);\n    }\n\n    function checkOutBook\n    (\n        address borrower,\n        string calldata title,\n        string calldata author,\n        uint publishedDate,\n        string calldata notes\n    )\n    external\n    isLibrarian\n    isOperational\n    bookExists(title, author, publishedDate)\n    {\n        bytes32 bookKey = getBookKey(title, author, publishedDate);\n        require(\n            !libraryData.isCheckedOut(bookKey),\n            \"This book is already checked out\"\n        );\n        libraryData.checkOutBook(borrower, bookKey, notes);\n        emit BookCheckedOut(\n            borrower,\n            title,\n            author,\n            publishedDate\n        );\n    }\n\n    function checkInBook\n    (\n        string calldata title,\n        string calldata author,\n        uint publishedDate,\n        string calldata notes\n    )\n    external\n    isOperational\n    bookExists(title, author, publishedDate)\n    {\n        // anyone except librarians can check in books\n        require(\n            !libraryData.isRegistered(msg.sender),\n            \"Librarians cannot bring back books\"\n        );\n        bytes32 bookKey = getBookKey(title, author, publishedDate);\n        require(\n            libraryData.isCheckedOut(bookKey),\n            \"This book is already checked in\"\n        );\n        libraryData.checkInBook(bookKey, notes, msg.sender);\n        emit BookCheckedIn(\n            title,\n            author,\n            publishedDate,\n            libraryData.getBookOriginLibrarian(bookKey)\n        );\n\n    }\n\n    function getBook\n    (\n        string calldata title,\n        string calldata author,\n        uint publishedDate\n    )\n    external\n    view\n    returns\n    (\n        /* title, author and publishedDate are not returned:\n        they are already provided as params so they are well know\n        by the caller. Moreover otherwise CompileError: stack is too deep\n        */\n        address originLibrarian,\n        address currentOwner,\n        bool checkedOut,\n        uint transfersCount,\n        address lastTransferFrom,\n        string memory lastTransferNotes,\n        uint price\n    )\n    {\n        bytes32 bookKey = getBookKey(title, author, publishedDate);\n        originLibrarian = libraryData.getBookOriginLibrarian(bookKey);\n        currentOwner = libraryData.getBookOwner(bookKey);\n        checkedOut = libraryData.isCheckedOut(bookKey);\n        transfersCount = libraryData.getTransfersCount(bookKey);\n        (lastTransferFrom, lastTransferNotes) = libraryData.getTransfer(bookKey, transfersCount.sub(1));\n        price = libraryData.getBookPrice(bookKey);\n    }\n\n    function sellBook\n    (\n        string calldata title,\n        string calldata author,\n        uint publishedDate,\n        uint price,\n        string calldata notes\n    )\n    external\n    bookExists(title, author, publishedDate)\n    isOperational\n    {\n        require(price > 0, \"Sale price must be > 0\");\n        bytes32 bookKey = getBookKey(title, author, publishedDate);\n        require(\n            libraryData.getBookOwner(bookKey) == msg.sender,\n            \"You cannot sale a book you do not own\"\n        );\n        libraryData.sellBook(bookKey, price, msg.sender, notes);\n        emit BookPutOnSale(\n            title,\n            author,\n            publishedDate,\n            price\n        );\n    }\n\n    function buyBook\n    (\n        string calldata title,\n        string calldata author,\n        uint publishedDate\n    )\n    external\n    isOperational\n    payable\n    {\n        bytes32 bookKey = getBookKey(title, author, publishedDate);\n        uint price = libraryData.getBookPrice(bookKey);\n        require(\n            libraryData.getBookPrice(bookKey) > 0,\n            \"This book is not for sale\"\n        );\n        require(msg.value >= price, \"Funds sent do not cover the book price\");\n\n        // refund if funds sent too high\n        uint amountToReturn = msg.value - price;\n        msg.sender.transfer(amountToReturn);\n\n        libraryData.buyBook.value(msg.value)(bookKey, msg.sender);\n        emit BookSold(title, author, publishedDate, price);\n    }\n\n    function withdraw()\n    external\n    isOperational\n    {\n        libraryData.withdraw(msg.sender);\n        emit Paid(msg.sender);\n    }\n\n}\n",
  "sourcePath": "/home/gry0u/Blockchain/heritage_code_challenge/contracts/LibraryApp.sol",
  "compiler": {
    "name": "solc",
    "version": "0.5.0+commit.1d4f565a.Emscripten.clang"
  },
  "schemaVersion": "3.0.1",
  "updatedAt": "2019-03-14T00:22:56.060Z",
  "devdoc": {
    "methods": {}
  },
  "userdoc": {
    "methods": {}
  }
}