{
  "contractName": "LibraryData",
  "abi": [
    {
      "constant": true,
      "inputs": [],
      "name": "operational",
      "outputs": [
        {
          "name": "",
          "type": "bool"
        }
      ],
      "payable": false,
      "stateMutability": "view",
      "type": "function",
      "signature": "0x0a401086"
    },
    {
      "constant": true,
      "inputs": [
        {
          "name": "",
          "type": "bytes32"
        }
      ],
      "name": "books",
      "outputs": [
        {
          "name": "title",
          "type": "string"
        },
        {
          "name": "author",
          "type": "string"
        },
        {
          "name": "publishedDate",
          "type": "uint256"
        },
        {
          "name": "originLibrarian",
          "type": "address"
        },
        {
          "name": "currentOwner",
          "type": "address"
        },
        {
          "name": "checkedOut",
          "type": "bool"
        },
        {
          "name": "index",
          "type": "uint256"
        },
        {
          "name": "transfersCount",
          "type": "uint256"
        },
        {
          "name": "salePrice",
          "type": "uint256"
        }
      ],
      "payable": false,
      "stateMutability": "view",
      "type": "function",
      "signature": "0x0c0dee70"
    },
    {
      "constant": true,
      "inputs": [
        {
          "name": "",
          "type": "address"
        }
      ],
      "name": "authorizedCallers",
      "outputs": [
        {
          "name": "",
          "type": "bool"
        }
      ],
      "payable": false,
      "stateMutability": "view",
      "type": "function",
      "signature": "0x536fff6c"
    },
    {
      "constant": true,
      "inputs": [
        {
          "name": "",
          "type": "address"
        }
      ],
      "name": "librarians",
      "outputs": [
        {
          "name": "",
          "type": "bool"
        }
      ],
      "payable": false,
      "stateMutability": "view",
      "type": "function",
      "signature": "0x5d40e3c1"
    },
    {
      "constant": true,
      "inputs": [
        {
          "name": "",
          "type": "address"
        }
      ],
      "name": "withdrawals",
      "outputs": [
        {
          "name": "",
          "type": "uint256"
        }
      ],
      "payable": false,
      "stateMutability": "view",
      "type": "function",
      "signature": "0x7a9262a2"
    },
    {
      "constant": true,
      "inputs": [],
      "name": "libraryOwner",
      "outputs": [
        {
          "name": "",
          "type": "address"
        }
      ],
      "payable": false,
      "stateMutability": "view",
      "type": "function",
      "signature": "0x99abc8eb"
    },
    {
      "inputs": [],
      "payable": false,
      "stateMutability": "nonpayable",
      "type": "constructor",
      "signature": "constructor"
    },
    {
      "constant": false,
      "inputs": [
        {
          "name": "mode",
          "type": "bool"
        }
      ],
      "name": "setOperatingStatus",
      "outputs": [],
      "payable": false,
      "stateMutability": "nonpayable",
      "type": "function",
      "signature": "0x110466ed"
    },
    {
      "constant": false,
      "inputs": [
        {
          "name": "callerAddress",
          "type": "address"
        }
      ],
      "name": "authorizeCaller",
      "outputs": [],
      "payable": false,
      "stateMutability": "nonpayable",
      "type": "function",
      "signature": "0x2c388d5d"
    },
    {
      "constant": true,
      "inputs": [
        {
          "name": "librarian",
          "type": "address"
        }
      ],
      "name": "isRegistered",
      "outputs": [
        {
          "name": "registered",
          "type": "bool"
        }
      ],
      "payable": false,
      "stateMutability": "view",
      "type": "function",
      "signature": "0xc3c5a547"
    },
    {
      "constant": true,
      "inputs": [
        {
          "name": "title",
          "type": "string"
        },
        {
          "name": "author",
          "type": "string"
        },
        {
          "name": "publishedDate",
          "type": "uint256"
        }
      ],
      "name": "getBookKey",
      "outputs": [
        {
          "name": "bookKey",
          "type": "bytes32"
        }
      ],
      "payable": false,
      "stateMutability": "pure",
      "type": "function",
      "signature": "0xa0a34b74"
    },
    {
      "constant": true,
      "inputs": [
        {
          "name": "bookKey",
          "type": "bytes32"
        }
      ],
      "name": "isBook",
      "outputs": [
        {
          "name": "isIndeed",
          "type": "bool"
        }
      ],
      "payable": false,
      "stateMutability": "view",
      "type": "function",
      "signature": "0xe8126370"
    },
    {
      "constant": true,
      "inputs": [
        {
          "name": "bookKey",
          "type": "bytes32"
        }
      ],
      "name": "getBookOwner",
      "outputs": [
        {
          "name": "bookOwner",
          "type": "address"
        }
      ],
      "payable": false,
      "stateMutability": "view",
      "type": "function",
      "signature": "0x3ae59206"
    },
    {
      "constant": true,
      "inputs": [
        {
          "name": "bookKey",
          "type": "bytes32"
        }
      ],
      "name": "getBookOriginLibrarian",
      "outputs": [
        {
          "name": "librarian",
          "type": "address"
        }
      ],
      "payable": false,
      "stateMutability": "view",
      "type": "function",
      "signature": "0x38ae8bbe"
    },
    {
      "constant": true,
      "inputs": [
        {
          "name": "bookKey",
          "type": "bytes32"
        }
      ],
      "name": "isCheckedOut",
      "outputs": [
        {
          "name": "out",
          "type": "bool"
        }
      ],
      "payable": false,
      "stateMutability": "view",
      "type": "function",
      "signature": "0x8b59c733"
    },
    {
      "constant": true,
      "inputs": [
        {
          "name": "bookKey",
          "type": "bytes32"
        },
        {
          "name": "index",
          "type": "uint256"
        }
      ],
      "name": "getTransfer",
      "outputs": [
        {
          "name": "fromAddress",
          "type": "address"
        },
        {
          "name": "notesTransfer",
          "type": "string"
        }
      ],
      "payable": false,
      "stateMutability": "view",
      "type": "function",
      "signature": "0x5b1b5d90"
    },
    {
      "constant": true,
      "inputs": [
        {
          "name": "bookKey",
          "type": "bytes32"
        }
      ],
      "name": "getTransfersCount",
      "outputs": [
        {
          "name": "num",
          "type": "uint256"
        }
      ],
      "payable": false,
      "stateMutability": "view",
      "type": "function",
      "signature": "0xc0f9bc42"
    },
    {
      "constant": true,
      "inputs": [
        {
          "name": "bookKey",
          "type": "bytes32"
        }
      ],
      "name": "getBookPrice",
      "outputs": [
        {
          "name": "amount",
          "type": "uint256"
        }
      ],
      "payable": false,
      "stateMutability": "view",
      "type": "function",
      "signature": "0xc2b025eb"
    },
    {
      "constant": false,
      "inputs": [
        {
          "name": "librarian",
          "type": "address"
        },
        {
          "name": "add",
          "type": "bool"
        }
      ],
      "name": "setMembership",
      "outputs": [],
      "payable": false,
      "stateMutability": "nonpayable",
      "type": "function",
      "signature": "0x01746484"
    },
    {
      "constant": false,
      "inputs": [
        {
          "name": "author",
          "type": "string"
        },
        {
          "name": "title",
          "type": "string"
        },
        {
          "name": "publishedDate",
          "type": "uint256"
        },
        {
          "name": "_originLibrarian",
          "type": "address"
        }
      ],
      "name": "insertBook",
      "outputs": [
        {
          "name": "index",
          "type": "uint256"
        }
      ],
      "payable": false,
      "stateMutability": "nonpayable",
      "type": "function",
      "signature": "0x46ebc5e0"
    },
    {
      "constant": false,
      "inputs": [
        {
          "name": "bookKey",
          "type": "bytes32"
        }
      ],
      "name": "deleteBook",
      "outputs": [
        {
          "name": "index",
          "type": "uint256"
        }
      ],
      "payable": false,
      "stateMutability": "nonpayable",
      "type": "function",
      "signature": "0x63dcd599"
    },
    {
      "constant": false,
      "inputs": [
        {
          "name": "borrower",
          "type": "address"
        },
        {
          "name": "bookKey",
          "type": "bytes32"
        },
        {
          "name": "notes",
          "type": "string"
        }
      ],
      "name": "checkOutBook",
      "outputs": [],
      "payable": false,
      "stateMutability": "nonpayable",
      "type": "function",
      "signature": "0x90615849"
    },
    {
      "constant": false,
      "inputs": [
        {
          "name": "bookKey",
          "type": "bytes32"
        },
        {
          "name": "notes",
          "type": "string"
        },
        {
          "name": "from",
          "type": "address"
        }
      ],
      "name": "checkInBook",
      "outputs": [],
      "payable": false,
      "stateMutability": "nonpayable",
      "type": "function",
      "signature": "0xc28e5b50"
    },
    {
      "constant": false,
      "inputs": [
        {
          "name": "bookKey",
          "type": "bytes32"
        },
        {
          "name": "price",
          "type": "uint256"
        },
        {
          "name": "seller",
          "type": "address"
        },
        {
          "name": "notes",
          "type": "string"
        }
      ],
      "name": "sellBook",
      "outputs": [],
      "payable": false,
      "stateMutability": "nonpayable",
      "type": "function",
      "signature": "0xf0950eb1"
    },
    {
      "constant": false,
      "inputs": [
        {
          "name": "bookKey",
          "type": "bytes32"
        },
        {
          "name": "buyer",
          "type": "address"
        }
      ],
      "name": "buyBook",
      "outputs": [],
      "payable": true,
      "stateMutability": "payable",
      "type": "function",
      "signature": "0x0e84a648"
    },
    {
      "constant": false,
      "inputs": [
        {
          "name": "recipient",
          "type": "address"
        }
      ],
      "name": "withdraw",
      "outputs": [],
      "payable": false,
      "stateMutability": "nonpayable",
      "type": "function",
      "signature": "0x51cff8d9"
    }
  ],
  "bytecode": "0x60806040526000600460006101000a81548160ff02191690831515021790555034801561002b57600080fd5b506001600460006101000a81548160ff021916908315150217905550336000806101000a81548173ffffffffffffffffffffffffffffffffffffffff021916908373ffffffffffffffffffffffffffffffffffffffff16021790555060018060003373ffffffffffffffffffffffffffffffffffffffff1673ffffffffffffffffffffffffffffffffffffffff16815260200190815260200160002060006101000a81548160ff0219169083151502179055506130e5806100ed6000396000f3fe608060405260043610610149576000357c0100000000000000000000000000000000000000000000000000000000900463ffffffff168063017464841461014e5780630a401086146101ab5780630c0dee70146101da5780630e84a64814610387578063110466ed146103d55780632c388d5d1461041257806338ae8bbe146104635780633ae59206146104de57806346ebc5e01461055957806351cff8d914610672578063536fff6c146106c35780635b1b5d901461072c5780635d40e3c11461081d57806363dcd599146108865780637a9262a2146108d55780638b59c7331461093a578063906158491461098d57806399abc8eb14610a3d578063a0a34b7414610a94578063c0f9bc4214610c11578063c28e5b5014610c60578063c2b025eb14610d10578063c3c5a54714610d5f578063e812637014610dc8578063f0950eb114610e1b575b600080fd5b34801561015a57600080fd5b506101a96004803603604081101561017157600080fd5b81019080803573ffffffffffffffffffffffffffffffffffffffff169060200190929190803515159060200190929190505050610ed5565b005b3480156101b757600080fd5b506101c06110c8565b604051808215151515815260200191505060405180910390f35b3480156101e657600080fd5b50610213600480360360208110156101fd57600080fd5b81019080803590602001909291905050506110db565b6040518080602001806020018a81526020018973ffffffffffffffffffffffffffffffffffffffff1673ffffffffffffffffffffffffffffffffffffffff1681526020018873ffffffffffffffffffffffffffffffffffffffff1673ffffffffffffffffffffffffffffffffffffffff1681526020018715151515815260200186815260200185815260200184815260200183810383528c818151815260200191508051906020019080838360005b838110156102dd5780820151818401526020810190506102c2565b50505050905090810190601f16801561030a5780820380516001836020036101000a031916815260200191505b5083810382528b818151815260200191508051906020019080838360005b83811015610343578082015181840152602081019050610328565b50505050905090810190601f1680156103705780820380516001836020036101000a031916815260200191505b509b50505050505050505050505060405180910390f35b6103d36004803603604081101561039d57600080fd5b8101908080359060200190929190803573ffffffffffffffffffffffffffffffffffffffff1690602001909291905050506112a6565b005b3480156103e157600080fd5b50610410600480360360208110156103f857600080fd5b81019080803515159060200190929190505050611558565b005b34801561041e57600080fd5b506104616004803603602081101561043557600080fd5b81019080803573ffffffffffffffffffffffffffffffffffffffff169060200190929190505050611712565b005b34801561046f57600080fd5b5061049c6004803603602081101561048657600080fd5b8101908080359060200190929190505050611817565b604051808273ffffffffffffffffffffffffffffffffffffffff1673ffffffffffffffffffffffffffffffffffffffff16815260200191505060405180910390f35b3480156104ea57600080fd5b506105176004803603602081101561050157600080fd5b8101908080359060200190929190505050611857565b604051808273ffffffffffffffffffffffffffffffffffffffff1673ffffffffffffffffffffffffffffffffffffffff16815260200191505060405180910390f35b34801561056557600080fd5b5061065c6004803603608081101561057c57600080fd5b810190808035906020019064010000000081111561059957600080fd5b8201836020820111156105ab57600080fd5b803590602001918460018302840111640100000000831117156105cd57600080fd5b9091929391929390803590602001906401000000008111156105ee57600080fd5b82018360208201111561060057600080fd5b8035906020019184600183028401116401000000008311171561062257600080fd5b909192939192939080359060200190929190803573ffffffffffffffffffffffffffffffffffffffff169060200190929190505050611897565b6040518082815260200191505060405180910390f35b34801561067e57600080fd5b506106c16004803603602081101561069557600080fd5b81019080803573ffffffffffffffffffffffffffffffffffffffff169060200190929190505050611c57565b005b3480156106cf57600080fd5b50610712600480360360208110156106e657600080fd5b81019080803573ffffffffffffffffffffffffffffffffffffffff169060200190929190505050611ec3565b604051808215151515815260200191505060405180910390f35b34801561073857600080fd5b5061076f6004803603604081101561074f57600080fd5b810190808035906020019092919080359060200190929190505050611ee3565b604051808373ffffffffffffffffffffffffffffffffffffffff1673ffffffffffffffffffffffffffffffffffffffff16815260200180602001828103825283818151815260200191508051906020019080838360005b838110156107e15780820151818401526020810190506107c6565b50505050905090810190601f16801561080e5780820380516001836020036101000a031916815260200191505b50935050505060405180910390f35b34801561082957600080fd5b5061086c6004803603602081101561084057600080fd5b81019080803573ffffffffffffffffffffffffffffffffffffffff16906020019092919050505061211f565b604051808215151515815260200191505060405180910390f35b34801561089257600080fd5b506108bf600480360360208110156108a957600080fd5b810190808035906020019092919050505061213f565b6040518082815260200191505060405180910390f35b3480156108e157600080fd5b50610924600480360360208110156108f857600080fd5b81019080803573ffffffffffffffffffffffffffffffffffffffff169060200190929190505050612381565b6040518082815260200191505060405180910390f35b34801561094657600080fd5b506109736004803603602081101561095d57600080fd5b8101908080359060200190929190505050612399565b604051808215151515815260200191505060405180910390f35b34801561099957600080fd5b50610a3b600480360360608110156109b057600080fd5b81019080803573ffffffffffffffffffffffffffffffffffffffff16906020019092919080359060200190929190803590602001906401000000008111156109f757600080fd5b820183602082011115610a0957600080fd5b80359060200191846001830284011164010000000083111715610a2b57600080fd5b90919293919293905050506123c6565b005b348015610a4957600080fd5b50610a5261266d565b604051808273ffffffffffffffffffffffffffffffffffffffff1673ffffffffffffffffffffffffffffffffffffffff16815260200191505060405180910390f35b348015610aa057600080fd5b50610bfb60048036036060811015610ab757600080fd5b8101908080359060200190640100000000811115610ad457600080fd5b820183602082011115610ae657600080fd5b80359060200191846001830284011164010000000083111715610b0857600080fd5b91908080601f016020809104026020016040519081016040528093929190818152602001838380828437600081840152601f19601f82011690508083019250505050505050919291929080359060200190640100000000811115610b6b57600080fd5b820183602082011115610b7d57600080fd5b80359060200191846001830284011164010000000083111715610b9f57600080fd5b91908080601f016020809104026020016040519081016040528093929190818152602001838380828437600081840152601f19601f82011690508083019250505050505050919291929080359060200190929190505050612692565b6040518082815260200191505060405180910390f35b348015610c1d57600080fd5b50610c4a60048036036020811015610c3457600080fd5b810190808035906020019092919050505061276e565b6040518082815260200191505060405180910390f35b348015610c6c57600080fd5b50610d0e60048036036060811015610c8357600080fd5b810190808035906020019092919080359060200190640100000000811115610caa57600080fd5b820183602082011115610cbc57600080fd5b80359060200191846001830284011164010000000083111715610cde57600080fd5b9091929391929390803573ffffffffffffffffffffffffffffffffffffffff16906020019092919050505061278e565b005b348015610d1c57600080fd5b50610d4960048036036020811015610d3357600080fd5b8101908080359060200190929190505050612a35565b6040518082815260200191505060405180910390f35b348015610d6b57600080fd5b50610dae60048036036020811015610d8257600080fd5b81019080803573ffffffffffffffffffffffffffffffffffffffff169060200190929190505050612a55565b604051808215151515815260200191505060405180910390f35b348015610dd457600080fd5b50610e0160048036036020811015610deb57600080fd5b8101908080359060200190929190505050612b99565b604051808215151515815260200191505060405180910390f35b348015610e2757600080fd5b50610ed360048036036080811015610e3e57600080fd5b810190808035906020019092919080359060200190929190803573ffffffffffffffffffffffffffffffffffffffff16906020019092919080359060200190640100000000811115610e8f57600080fd5b820183602082011115610ea157600080fd5b80359060200191846001830284011164010000000083111715610ec357600080fd5b9091929391929390505050612beb565b005b60011515600560003373ffffffffffffffffffffffffffffffffffffffff1673ffffffffffffffffffffffffffffffffffffffff16815260200190815260200160002060009054906101000a900460ff161515141515610fc3576040517f08c379a000000000000000000000000000000000000000000000000000000000815260040180806020018281038252602c8152602001807f41646472657373206e6f7420617574686f72697a656420746f2063616c6c207481526020017f6869732066756e6374696f6e000000000000000000000000000000000000000081525060400191505060405180910390fd5b600460009054906101000a900460ff16151561106d576040517f08c379a00000000000000000000000000000000000000000000000000000000081526004018080602001828103825260258152602001807f436f6e74726163742069732063757272656e746c79206e6f74206f706572617481526020017f696f6e616c00000000000000000000000000000000000000000000000000000081525060400191505060405180910390fd5b80600160008473ffffffffffffffffffffffffffffffffffffffff1673ffffffffffffffffffffffffffffffffffffffff16815260200190815260200160002060006101000a81548160ff0219169083151502179055505050565b600460009054906101000a900460ff1681565b6002602052806000526040600020600091509050806000018054600181600116156101000203166002900480601f0160208091040260200160405190810160405280929190818152602001828054600181600116156101000203166002900480156111875780601f1061115c57610100808354040283529160200191611187565b820191906000526020600020905b81548152906001019060200180831161116a57829003601f168201915b505050505090806001018054600181600116156101000203166002900480601f0160208091040260200160405190810160405280929190818152602001828054600181600116156101000203166002900480156112255780601f106111fa57610100808354040283529160200191611225565b820191906000526020600020905b81548152906001019060200180831161120857829003601f168201915b5050505050908060020154908060030160009054906101000a900473ffffffffffffffffffffffffffffffffffffffff16908060040160009054906101000a900473ffffffffffffffffffffffffffffffffffffffff16908060040160149054906101000a900460ff16908060050154908060070154908060080154905089565b60011515600560003373ffffffffffffffffffffffffffffffffffffffff1673ffffffffffffffffffffffffffffffffffffffff16815260200190815260200160002060009054906101000a900460ff161515141515611394576040517f08c379a000000000000000000000000000000000000000000000000000000000815260040180806020018281038252602c8152602001807f41646472657373206e6f7420617574686f72697a656420746f2063616c6c207481526020017f6869732066756e6374696f6e000000000000000000000000000000000000000081525060400191505060405180910390fd5b600460009054906101000a900460ff16151561143e576040517f08c379a00000000000000000000000000000000000000000000000000000000081526004018080602001828103825260258152602001807f436f6e74726163742069732063757272656e746c79206e6f74206f706572617481526020017f696f6e616c00000000000000000000000000000000000000000000000000000081525060400191505060405180910390fd5b60006002600084815260200190815260200160002060040160009054906101000a900473ffffffffffffffffffffffffffffffffffffffff16905060006002600085815260200190815260200160002060080154905060006002600086815260200190815260200160002060080181905550826002600086815260200190815260200160002060040160006101000a81548173ffffffffffffffffffffffffffffffffffffffff021916908373ffffffffffffffffffffffffffffffffffffffff16021790555080600660008473ffffffffffffffffffffffffffffffffffffffff1673ffffffffffffffffffffffffffffffffffffffff1681526020019081526020016000206000828254019250508190555050505050565b6000809054906101000a900473ffffffffffffffffffffffffffffffffffffffff1673ffffffffffffffffffffffffffffffffffffffff163373ffffffffffffffffffffffffffffffffffffffff16141515611642576040517f08c379a000000000000000000000000000000000000000000000000000000000815260040180806020018281038252602a8152602001807f4f6e6c79206c696272617279206f776e65722063616e20706572666f726d207481526020017f68697320616374696f6e0000000000000000000000000000000000000000000081525060400191505060405180910390fd5b80600460009054906101000a900460ff161515811515141515156116f4576040517f08c379a00000000000000000000000000000000000000000000000000000000081526004018080602001828103825260278152602001807f436f6e747261637420616c726561647920696e2074686520737461746520726581526020017f717565737465640000000000000000000000000000000000000000000000000081525060400191505060405180910390fd5b81600460006101000a81548160ff0219169083151502179055505050565b600460009054906101000a900460ff1615156117bc576040517f08c379a00000000000000000000000000000000000000000000000000000000081526004018080602001828103825260258152602001807f436f6e74726163742069732063757272656e746c79206e6f74206f706572617481526020017f696f6e616c00000000000000000000000000000000000000000000000000000081525060400191505060405180910390fd5b6001600560008373ffffffffffffffffffffffffffffffffffffffff1673ffffffffffffffffffffffffffffffffffffffff16815260200190815260200160002060006101000a81548160ff02191690831515021790555050565b60006002600083815260200190815260200160002060030160009054906101000a900473ffffffffffffffffffffffffffffffffffffffff169050919050565b60006002600083815260200190815260200160002060040160009054906101000a900473ffffffffffffffffffffffffffffffffffffffff169050919050565b600060011515600560003373ffffffffffffffffffffffffffffffffffffffff1673ffffffffffffffffffffffffffffffffffffffff16815260200190815260200160002060009054906101000a900460ff161515141515611987576040517f08c379a000000000000000000000000000000000000000000000000000000000815260040180806020018281038252602c8152602001807f41646472657373206e6f7420617574686f72697a656420746f2063616c6c207481526020017f6869732066756e6374696f6e000000000000000000000000000000000000000081525060400191505060405180910390fd5b600460009054906101000a900460ff161515611a31576040517f08c379a00000000000000000000000000000000000000000000000000000000081526004018080602001828103825260258152602001807f436f6e74726163742069732063757272656e746c79206e6f74206f706572617481526020017f696f6e616c00000000000000000000000000000000000000000000000000000081525060400191505060405180910390fd5b6000611ac688888080601f016020809104026020016040519081016040528093929190818152602001838380828437600081840152601f19601f8201169050808301925050505050505087878080601f016020809104026020016040519081016040528093929190818152602001838380828437600081840152601f19601f8201169050808301925050505050505086612692565b90508787600260008481526020019081526020016000206001019190611aed929190612f13565b508585600260008481526020019081526020016000206000019190611b13929190612f13565b50836002600083815260200190815260200160002060020181905550826002600083815260200190815260200160002060030160006101000a81548173ffffffffffffffffffffffffffffffffffffffff021916908373ffffffffffffffffffffffffffffffffffffffff160217905550826002600083815260200190815260200160002060040160006101000a81548173ffffffffffffffffffffffffffffffffffffffff021916908373ffffffffffffffffffffffffffffffffffffffff160217905550611c17600160038390806001815401808255809150509060018203906000526020600020016000909192909190915055612df490919063ffffffff16565b6002600083815260200190815260200160002060050181905550611c4a6001600380549050612df490919063ffffffff16565b9150509695505050505050565b600460009054906101000a900460ff161515611d01576040517f08c379a00000000000000000000000000000000000000000000000000000000081526004018080602001828103825260258152602001807f436f6e74726163742069732063757272656e746c79206e6f74206f706572617481526020017f696f6e616c00000000000000000000000000000000000000000000000000000081525060400191505060405180910390fd5b60011515600560003373ffffffffffffffffffffffffffffffffffffffff1673ffffffffffffffffffffffffffffffffffffffff16815260200190815260200160002060009054906101000a900460ff161515141515611def576040517f08c379a000000000000000000000000000000000000000000000000000000000815260040180806020018281038252602c8152602001807f41646472657373206e6f7420617574686f72697a656420746f2063616c6c207481526020017f6869732066756e6374696f6e000000000000000000000000000000000000000081525060400191505060405180910390fd5b6000600660008373ffffffffffffffffffffffffffffffffffffffff1673ffffffffffffffffffffffffffffffffffffffff1681526020019081526020016000205490506000600660008473ffffffffffffffffffffffffffffffffffffffff1673ffffffffffffffffffffffffffffffffffffffff168152602001908152602001600020819055508173ffffffffffffffffffffffffffffffffffffffff166108fc829081150290604051600060405180830381858888f19350505050158015611ebe573d6000803e3d6000fd5b505050565b60056020528060005260406000206000915054906101000a900460ff1681565b60006060611ef084612b99565b1515611f64576040517f08c379a00000000000000000000000000000000000000000000000000000000081526004018080602001828103825260188152602001807f5468697320626f6f6b20646f6573206e6f74206578697374000000000000000081525060200191505060405180910390fd5b60026000858152602001908152602001600020600701548311151515611ff2576040517f08c379a00000000000000000000000000000000000000000000000000000000081526004018080602001828103825260128152602001807f496e646578206f7574206f662072616e6765000000000000000000000000000081525060200191505060405180910390fd5b600260008581526020019081526020016000206006018381548110151561201557fe5b906000526020600020906002020160000160009054906101000a900473ffffffffffffffffffffffffffffffffffffffff169150600260008581526020019081526020016000206006018381548110151561206c57fe5b90600052602060002090600202016001018054600181600116156101000203166002900480601f0160208091040260200160405190810160405280929190818152602001828054600181600116156101000203166002900480156121115780601f106120e657610100808354040283529160200191612111565b820191906000526020600020905b8154815290600101906020018083116120f457829003601f168201915b505050505090509250929050565b60016020528060005260406000206000915054906101000a900460ff1681565b600060011515600560003373ffffffffffffffffffffffffffffffffffffffff1673ffffffffffffffffffffffffffffffffffffffff16815260200190815260200160002060009054906101000a900460ff16151514151561222f576040517f08c379a000000000000000000000000000000000000000000000000000000000815260040180806020018281038252602c8152602001807f41646472657373206e6f7420617574686f72697a656420746f2063616c6c207481526020017f6869732066756e6374696f6e000000000000000000000000000000000000000081525060400191505060405180910390fd5b600460009054906101000a900460ff1615156122d9576040517f08c379a00000000000000000000000000000000000000000000000000000000081526004018080602001828103825260258152602001807f436f6e74726163742069732063757272656e746c79206e6f74206f706572617481526020017f696f6e616c00000000000000000000000000000000000000000000000000000081525060400191505060405180910390fd5b600060026000848152602001908152602001600020600501549050600060036123116001600380549050612df490919063ffffffff16565b81548110151561231d57fe5b906000526020600020015490508060038381548110151561233a57fe5b906000526020600020018190555081600260008381526020019081526020016000206005018190555060038054809190600190036123789190612f93565b92505050919050565b60066020528060005260406000206000915090505481565b60006002600083815260200190815260200160002060040160149054906101000a900460ff169050919050565b60011515600560003373ffffffffffffffffffffffffffffffffffffffff1673ffffffffffffffffffffffffffffffffffffffff16815260200190815260200160002060009054906101000a900460ff1615151415156124b4576040517f08c379a000000000000000000000000000000000000000000000000000000000815260040180806020018281038252602c8152602001807f41646472657373206e6f7420617574686f72697a656420746f2063616c6c207481526020017f6869732066756e6374696f6e000000000000000000000000000000000000000081525060400191505060405180910390fd5b600460009054906101000a900460ff16151561255e576040517f08c379a00000000000000000000000000000000000000000000000000000000081526004018080602001828103825260258152602001807f436f6e74726163742069732063757272656e746c79206e6f74206f706572617481526020017f696f6e616c00000000000000000000000000000000000000000000000000000081525060400191505060405180910390fd5b60016002600085815260200190815260200160002060040160146101000a81548160ff021916908315150217905550612612836002600086815260200190815260200160002060040160009054906101000a900473ffffffffffffffffffffffffffffffffffffffff1684848080601f016020809104026020016040519081016040528093929190818152602001838380828437600081840152601f19601f82011690508083019250505050505050612e16565b836002600085815260200190815260200160002060040160006101000a81548173ffffffffffffffffffffffffffffffffffffffff021916908373ffffffffffffffffffffffffffffffffffffffff16021790555050505050565b6000809054906101000a900473ffffffffffffffffffffffffffffffffffffffff1681565b60008383836040516020018084805190602001908083835b6020831015156126cf57805182526020820191506020810190506020830392506126aa565b6001836020036101000a03801982511681845116808217855250505050505090500183805190602001908083835b60208310151561272257805182526020820191506020810190506020830392506126fd565b6001836020036101000a03801982511681845116808217855250505050505090500182815260200193505050506040516020818303038152906040528051906020012090509392505050565b600060026000838152602001908152602001600020600701549050919050565b60011515600560003373ffffffffffffffffffffffffffffffffffffffff1673ffffffffffffffffffffffffffffffffffffffff16815260200190815260200160002060009054906101000a900460ff16151514151561287c576040517f08c379a000000000000000000000000000000000000000000000000000000000815260040180806020018281038252602c8152602001807f41646472657373206e6f7420617574686f72697a656420746f2063616c6c207481526020017f6869732066756e6374696f6e000000000000000000000000000000000000000081525060400191505060405180910390fd5b600460009054906101000a900460ff161515612926576040517f08c379a00000000000000000000000000000000000000000000000000000000081526004018080602001828103825260258152602001807f436f6e74726163742069732063757272656e746c79206e6f74206f706572617481526020017f696f6e616c00000000000000000000000000000000000000000000000000000081525060400191505060405180910390fd5b60006002600086815260200190815260200160002060040160146101000a81548160ff0219169083151502179055506129a4848285858080601f016020809104026020016040519081016040528093929190818152602001838380828437600081840152601f19601f82011690508083019250505050505050612e16565b6002600085815260200190815260200160002060030160009054906101000a900473ffffffffffffffffffffffffffffffffffffffff166002600086815260200190815260200160002060040160006101000a81548173ffffffffffffffffffffffffffffffffffffffff021916908373ffffffffffffffffffffffffffffffffffffffff16021790555050505050565b600060026000838152602001908152602001600020600801549050919050565b600060011515600560003373ffffffffffffffffffffffffffffffffffffffff1673ffffffffffffffffffffffffffffffffffffffff16815260200190815260200160002060009054906101000a900460ff161515141515612b45576040517f08c379a000000000000000000000000000000000000000000000000000000000815260040180806020018281038252602c8152602001807f41646472657373206e6f7420617574686f72697a656420746f2063616c6c207481526020017f6869732066756e6374696f6e000000000000000000000000000000000000000081525060400191505060405180910390fd5b600160008373ffffffffffffffffffffffffffffffffffffffff1673ffffffffffffffffffffffffffffffffffffffff16815260200190815260200160002060009054906101000a900460ff169050919050565b6000806003805490501415612bb15760009050612be6565b8160036002600085815260200190815260200160002060050154815481101515612bd757fe5b90600052602060002001541490505b919050565b60011515600560003373ffffffffffffffffffffffffffffffffffffffff1673ffffffffffffffffffffffffffffffffffffffff16815260200190815260200160002060009054906101000a900460ff161515141515612cd9576040517f08c379a000000000000000000000000000000000000000000000000000000000815260040180806020018281038252602c8152602001807f41646472657373206e6f7420617574686f72697a656420746f2063616c6c207481526020017f6869732066756e6374696f6e000000000000000000000000000000000000000081525060400191505060405180910390fd5b600460009054906101000a900460ff161515612d83576040517f08c379a00000000000000000000000000000000000000000000000000000000081526004018080602001828103825260258152602001807f436f6e74726163742069732063757272656e746c79206e6f74206f706572617481526020017f696f6e616c00000000000000000000000000000000000000000000000000000081525060400191505060405180910390fd5b836002600087815260200190815260200160002060080181905550612ded858484848080601f016020809104026020016040519081016040528093929190818152602001838380828437600081840152601f19601f82011690508083019250505050505050612e16565b5050505050565b6000828211151515612e0557600080fd5b600082840390508091505092915050565b612e1e612fbf565b60408051908101604052808473ffffffffffffffffffffffffffffffffffffffff16815260200183815250905060026000858152602001908152602001600020600601819080600181540180825580915050906001820390600052602060002090600202016000909192909190915060008201518160000160006101000a81548173ffffffffffffffffffffffffffffffffffffffff021916908373ffffffffffffffffffffffffffffffffffffffff1602179055506020820151816001019080519060200190612ef0929190612fef565b505050600260008681526020019081526020016000206007018190555050505050565b828054600181600116156101000203166002900490600052602060002090601f016020900481019282601f10612f5457803560ff1916838001178555612f82565b82800160010185558215612f82579182015b82811115612f81578235825591602001919060010190612f66565b5b509050612f8f919061306f565b5090565b815481835581811115612fba57818360005260206000209182019101612fb99190613094565b5b505050565b6040805190810160405280600073ffffffffffffffffffffffffffffffffffffffff168152602001606081525090565b828054600181600116156101000203166002900490600052602060002090601f016020900481019282601f1061303057805160ff191683800117855561305e565b8280016001018555821561305e579182015b8281111561305d578251825591602001919060010190613042565b5b50905061306b919061306f565b5090565b61309191905b8082111561308d576000816000905550600101613075565b5090565b90565b6130b691905b808211156130b257600081600090555060010161309a565b5090565b9056fea165627a7a72305820c59e59ff3b9c2ac4baf852efcab32d61170a52e2c085c7114e10295c093a856c0029",
  "source": "pragma solidity ^0.5.0;\nimport \"../node_modules/openzeppelin-solidity/contracts/math/SafeMath.sol\";\n\ncontract LibraryData {\n    using SafeMath for uint;\n\n    // ----------------- VARIABLES\n    address public libraryOwner;\n\n    // To track registered librarians\n    mapping(address => bool) public librarians;\n\n    // struct to check the history of the check In\n    struct Transfer {\n        /* who is transfering the book\n        library in case of check out\n        borrower in case of check in\n        */\n        address from;\n        // Describe the changed made to book e.g repair or damages\n        string notes;\n    }\n\n\n\n    struct Book {\n        string title;\n        string author;\n        uint publishedDate;\n        address originLibrarian;\n        address currentOwner;\n        bool checkedOut;\n        uint index; // var used for CRUD pattern\n        Transfer[] transfers;\n        uint transfersCount;\n        uint salePrice;\n    }\n\n    /* Track all books in library\n    key = hash(title, author, publishedDate) with a CRUD pattern\n    https://medium.com/@robhitchens/solidity-crud-part-1-824ffa69509a\n    */\n    mapping(bytes32 => Book) public books;\n    bytes32[] bookKeys;\n\n    // Contract operational status control\n    bool public operational = false;\n\n    // Track authorized app contracts (upgradability requirement)\n    mapping(address => bool) public authorizedCallers;\n\n    // withdrawals for books trades\n    mapping(address => uint) public withdrawals;\n    // ----------------- EVENTS\n\n    // ---------------- CONSTRUCTOR\n    constructor () public {\n        // Contract is active\n        operational = true;\n        libraryOwner = msg.sender;\n        // owner is registered librarian\n        librarians[msg.sender] = true;\n    }\n\n    // ----------------- MODIFIERS\n    modifier isOwner() {\n        require(\n            msg.sender == libraryOwner,\n            \"Only library owner can perform this action\"\n        );\n        _;\n    }\n\n    modifier isOperational() {\n        require(operational, \"Contract is currently not operational\");\n        _;\n    }\n\n    // restrict function calls to previously authorized addresses\n    modifier callerAuthorized() {\n        require(authorizedCallers[msg.sender] == true, \"Address not authorized to call this function\");\n        _;\n    }\n\n    modifier differentModeRequest(bool status) {\n        require(status != operational, \"Contract already in the state requested\");\n        _;\n    }\n\n    // ----------------- UTILITY FUNCTIONS\n    function setOperatingStatus(bool mode)\n    external\n    isOwner\n    differentModeRequest(mode)\n    {\n        operational = mode;\n    }\n\n    function authorizeCaller(address callerAddress)\n    external\n    isOperational\n    {\n        authorizedCallers[callerAddress] = true;\n    }\n\n    function isRegistered(address librarian)\n    external\n    callerAuthorized\n    view\n    returns (bool registered)\n    {\n        registered = librarians[librarian];\n    }\n\n    function getBookKey\n    (\n        string memory title,\n        string memory author,\n        uint publishedDate\n    )\n    public\n    pure\n    returns(bytes32 bookKey)\n    {\n        bookKey = keccak256(abi.encodePacked(title, author, publishedDate));\n    }\n\n    function isBook(bytes32 bookKey)\n    public\n    view\n    returns(bool isIndeed)\n    {\n        if (bookKeys.length == 0) return false;\n        return (bookKeys[books[bookKey].index] == bookKey);\n    }\n\n    function getBookOwner(bytes32 bookKey)\n    public\n    view\n    returns (address bookOwner)\n    {\n        bookOwner = books[bookKey].currentOwner;\n    }\n\n    function getBookOriginLibrarian(bytes32 bookKey)\n    public\n    view\n    returns (address librarian)\n    {\n        librarian = books[bookKey].originLibrarian;\n    }\n\n    function isCheckedOut(bytes32 bookKey)\n    external\n    view\n    returns (bool out)\n    {\n        out = books[bookKey].checkedOut;\n    }\n\n    function recordTransfer\n    (\n        bytes32 bookKey,\n        address from,\n        string memory notes\n    )\n    internal\n    {\n        Transfer memory transfer = Transfer(from, notes);\n        books[bookKey].transfersCount = books[bookKey].transfers.push(transfer);\n    }\n\n    function getTransfer\n    (\n        bytes32 bookKey,\n        uint index\n    )\n    external\n    view\n    returns (address fromAddress, string memory notesTransfer)\n    {\n        require(isBook(bookKey), \"This book does not exist\");\n        require(\n            index <= books[bookKey].transfersCount,\n            \"Index out of range\"\n        );\n        fromAddress = books[bookKey].transfers[index].from;\n        notesTransfer = books[bookKey].transfers[index].notes;\n    }\n\n    function getTransfersCount(bytes32 bookKey)\n    external\n    view\n    returns (uint num)\n    {\n        num = books[bookKey].transfersCount;\n    }\n\n    function getBookPrice(bytes32 bookKey)\n    external\n    view\n    returns (uint amount)\n    {\n        amount = books[bookKey].salePrice;\n    }\n    // ----------------- SMART CONTRACT CORE FUNCTIONS\n    // Add or remove (depending on add arg)\n    function setMembership(address librarian, bool add)\n    external\n    callerAuthorized\n    isOperational\n    {\n        librarians[librarian] = add;\n    }\n\n    function insertBook\n    (\n        string calldata author,\n        string calldata title,\n        uint publishedDate,\n        address _originLibrarian\n    )\n    external\n    callerAuthorized\n    isOperational\n    returns (uint index)\n    {\n        // Generate book key\n        bytes32 bookKey = getBookKey(author, title, publishedDate);\n\n        // Insert book in collection\n        books[bookKey].author = author;\n        books[bookKey].title = title;\n        books[bookKey].publishedDate = publishedDate;\n        books[bookKey].originLibrarian = _originLibrarian;\n        books[bookKey].currentOwner = _originLibrarian;\n        books[bookKey].index = bookKeys.push(bookKey).sub(1);\n        index = bookKeys.length.sub(1);\n    }\n\n    // Very smart delete pattern from:\n    // https://medium.com/@robhitchens/solidity-crud-part-2-ed8d8b4f74ec\n    function deleteBook(bytes32 bookKey)\n    external\n    callerAuthorized\n    isOperational\n    returns (uint index)\n    {\n        // get key of book to delete\n        uint indexBookToDelete = books[bookKey].index;\n        /* move book in last position of the index into the position\n        of the book to be deleted\n        */\n        bytes32 fillBookKey =  bookKeys[bookKeys.length.sub(1)];\n        bookKeys[indexBookToDelete] = fillBookKey;\n        // Update replacement book index\n        books[fillBookKey].index = indexBookToDelete;\n        // delete last book of the index\n        index = bookKeys.length--;\n\n    }\n\n    function checkOutBook\n    (\n        address borrower,\n        bytes32 bookKey,\n        string calldata notes\n    )\n    external\n    callerAuthorized\n    isOperational\n    {\n        books[bookKey].checkedOut = true;\n        recordTransfer(bookKey, books[bookKey].currentOwner, notes);\n        books[bookKey].currentOwner = borrower;\n    }\n\n    function checkInBook\n    (\n        bytes32 bookKey,\n        string calldata notes,\n        address from\n    )\n    external\n    callerAuthorized\n    isOperational\n    {\n        books[bookKey].checkedOut = false;\n        recordTransfer(bookKey, from, notes);\n        books[bookKey].currentOwner = books[bookKey].originLibrarian;\n    }\n\n    function sellBook\n    (\n        bytes32 bookKey,\n        uint price,\n        address seller,\n        string calldata notes\n\n    )\n    external\n    callerAuthorized\n    isOperational\n    {\n        books[bookKey].salePrice = price;\n        recordTransfer(bookKey, seller, notes);\n\n    }\n\n    function buyBook(\n        bytes32 bookKey,\n        address buyer\n    )\n    external\n    callerAuthorized\n    isOperational\n    payable\n    {\n        address seller = books[bookKey].currentOwner;\n        uint amount = books[bookKey].salePrice;\n        books[bookKey].salePrice = 0;\n\n        books[bookKey].currentOwner = buyer;\n        withdrawals[seller] += amount;\n    }\n\n    function withdraw(address payable recipient)\n    external\n    isOperational\n    callerAuthorized\n    {\n        uint amount = withdrawals[recipient];\n        withdrawals[recipient] = 0;\n        recipient.transfer(amount);\n    }\n}\n",
  "sourcePath": "/home/gry0u/Blockchain/heritage_code_challenge/contracts/LibraryData.sol",
  "compiler": {
    "name": "solc",
    "version": "0.5.0+commit.1d4f565a.Emscripten.clang"
  },
  "schemaVersion": "3.0.1",
  "updatedAt": "2019-03-14T01:29:13.005Z",
  "devdoc": {
    "methods": {}
  },
  "userdoc": {
    "methods": {}
  }
}