{
  "contractName": "LibraryApp",
  "abi": [
    {
      "constant": true,
      "inputs": [],
      "name": "operational",
      "outputs": [
        {
          "name": "",
          "type": "bool"
        }
      ],
      "payable": false,
      "stateMutability": "view",
      "type": "function",
      "signature": "0x0a401086"
    },
    {
      "constant": true,
      "inputs": [],
      "name": "appOwner",
      "outputs": [
        {
          "name": "",
          "type": "address"
        }
      ],
      "payable": false,
      "stateMutability": "view",
      "type": "function",
      "signature": "0x32b93a86"
    },
    {
      "inputs": [
        {
          "name": "libraryDataAddress",
          "type": "address"
        }
      ],
      "payable": false,
      "stateMutability": "nonpayable",
      "type": "constructor",
      "signature": "constructor"
    },
    {
      "anonymous": false,
      "inputs": [
        {
          "indexed": false,
          "name": "librarian",
          "type": "address"
        },
        {
          "indexed": false,
          "name": "added",
          "type": "bool"
        }
      ],
      "name": "Membership",
      "type": "event",
      "signature": "0x3e6a45ec201157bb776e57c6c277cef1ccd2c84f3995ea7fceba923b1d45cc3f"
    },
    {
      "anonymous": false,
      "inputs": [
        {
          "indexed": false,
          "name": "title",
          "type": "string"
        },
        {
          "indexed": false,
          "name": "author",
          "type": "string"
        },
        {
          "indexed": false,
          "name": "publishedDate",
          "type": "uint256"
        },
        {
          "indexed": false,
          "name": "originLibrarian",
          "type": "address"
        }
      ],
      "name": "BookAdded",
      "type": "event",
      "signature": "0x1101fdbc4c93937df772db09e0ce91eecd984be6cd25001914d3db63e1823fd8"
    },
    {
      "anonymous": false,
      "inputs": [
        {
          "indexed": false,
          "name": "title",
          "type": "string"
        },
        {
          "indexed": false,
          "name": "author",
          "type": "string"
        },
        {
          "indexed": false,
          "name": "publishedDate",
          "type": "uint256"
        }
      ],
      "name": "BookDeleted",
      "type": "event",
      "signature": "0xc18bdd3f039f64d2895c1f340e0b6f485dfe9aced5c67b4f2486cfd3c381c506"
    },
    {
      "anonymous": false,
      "inputs": [
        {
          "indexed": false,
          "name": "borrower",
          "type": "address"
        },
        {
          "indexed": false,
          "name": "author",
          "type": "string"
        },
        {
          "indexed": false,
          "name": "title",
          "type": "string"
        },
        {
          "indexed": false,
          "name": "publishedDate",
          "type": "uint256"
        }
      ],
      "name": "BookCheckedOut",
      "type": "event",
      "signature": "0xa87071afc06e0faee6aecc208e64c44708b99985dd7037af1d04a1f8c3602101"
    },
    {
      "anonymous": false,
      "inputs": [
        {
          "indexed": false,
          "name": "title",
          "type": "string"
        },
        {
          "indexed": false,
          "name": "author",
          "type": "string"
        },
        {
          "indexed": false,
          "name": "publishedDate",
          "type": "uint256"
        },
        {
          "indexed": false,
          "name": "originLibrarian",
          "type": "address"
        }
      ],
      "name": "BookCheckedIn",
      "type": "event",
      "signature": "0x46000173342ee4cc6dec976ff964300c3556838a9888bb93ebfcca8e8e3ef96c"
    },
    {
      "anonymous": false,
      "inputs": [
        {
          "indexed": false,
          "name": "title",
          "type": "string"
        },
        {
          "indexed": false,
          "name": "author",
          "type": "string"
        },
        {
          "indexed": false,
          "name": "publishedDate",
          "type": "uint256"
        },
        {
          "indexed": false,
          "name": "price",
          "type": "uint256"
        }
      ],
      "name": "BookPutOnSale",
      "type": "event",
      "signature": "0xa00922436d4d5f4077b8f402608fafbec99390efede9fa71aa0aa62e140c8f39"
    },
    {
      "anonymous": false,
      "inputs": [
        {
          "indexed": false,
          "name": "title",
          "type": "string"
        },
        {
          "indexed": false,
          "name": "author",
          "type": "string"
        },
        {
          "indexed": false,
          "name": "publishedDate",
          "type": "uint256"
        },
        {
          "indexed": false,
          "name": "price",
          "type": "uint256"
        }
      ],
      "name": "BookSold",
      "type": "event",
      "signature": "0xe87f198189f50a9d8128b051e558d2493664408dfab291fb255271252dabbdcd"
    },
    {
      "anonymous": false,
      "inputs": [
        {
          "indexed": false,
          "name": "recipient",
          "type": "address"
        }
      ],
      "name": "Paid",
      "type": "event",
      "signature": "0xb513ded1b789eae3295f6834e90c165f7259d31e80787c0794e8745ca3574b2c"
    },
    {
      "constant": true,
      "inputs": [
        {
          "name": "title",
          "type": "string"
        },
        {
          "name": "author",
          "type": "string"
        },
        {
          "name": "publishedDate",
          "type": "uint256"
        }
      ],
      "name": "getBookKey",
      "outputs": [
        {
          "name": "bookKey",
          "type": "bytes32"
        }
      ],
      "payable": false,
      "stateMutability": "pure",
      "type": "function",
      "signature": "0xa0a34b74"
    },
    {
      "constant": false,
      "inputs": [
        {
          "name": "mode",
          "type": "bool"
        }
      ],
      "name": "setOperatingStatus",
      "outputs": [],
      "payable": false,
      "stateMutability": "nonpayable",
      "type": "function",
      "signature": "0x110466ed"
    },
    {
      "constant": false,
      "inputs": [
        {
          "name": "librarian",
          "type": "address"
        },
        {
          "name": "add",
          "type": "bool"
        }
      ],
      "name": "setMembership",
      "outputs": [],
      "payable": false,
      "stateMutability": "nonpayable",
      "type": "function",
      "signature": "0x01746484"
    },
    {
      "constant": false,
      "inputs": [
        {
          "name": "title",
          "type": "string"
        },
        {
          "name": "author",
          "type": "string"
        },
        {
          "name": "publishedDate",
          "type": "uint256"
        }
      ],
      "name": "insertBook",
      "outputs": [],
      "payable": false,
      "stateMutability": "nonpayable",
      "type": "function",
      "signature": "0x5a950817"
    },
    {
      "constant": false,
      "inputs": [
        {
          "name": "title",
          "type": "string"
        },
        {
          "name": "author",
          "type": "string"
        },
        {
          "name": "publishedDate",
          "type": "uint256"
        }
      ],
      "name": "deleteBook",
      "outputs": [],
      "payable": false,
      "stateMutability": "nonpayable",
      "type": "function",
      "signature": "0x5df490c3"
    },
    {
      "constant": false,
      "inputs": [
        {
          "name": "borrower",
          "type": "address"
        },
        {
          "name": "title",
          "type": "string"
        },
        {
          "name": "author",
          "type": "string"
        },
        {
          "name": "publishedDate",
          "type": "uint256"
        },
        {
          "name": "notes",
          "type": "string"
        }
      ],
      "name": "checkOutBook",
      "outputs": [],
      "payable": false,
      "stateMutability": "nonpayable",
      "type": "function",
      "signature": "0xb841906b"
    },
    {
      "constant": false,
      "inputs": [
        {
          "name": "title",
          "type": "string"
        },
        {
          "name": "author",
          "type": "string"
        },
        {
          "name": "publishedDate",
          "type": "uint256"
        },
        {
          "name": "notes",
          "type": "string"
        }
      ],
      "name": "checkInBook",
      "outputs": [],
      "payable": false,
      "stateMutability": "nonpayable",
      "type": "function",
      "signature": "0x58d370b7"
    },
    {
      "constant": true,
      "inputs": [
        {
          "name": "title",
          "type": "string"
        },
        {
          "name": "author",
          "type": "string"
        },
        {
          "name": "publishedDate",
          "type": "uint256"
        }
      ],
      "name": "getBook",
      "outputs": [
        {
          "name": "originLibrarian",
          "type": "address"
        },
        {
          "name": "currentOwner",
          "type": "address"
        },
        {
          "name": "checkedOut",
          "type": "bool"
        },
        {
          "name": "transfersCount",
          "type": "uint256"
        },
        {
          "name": "lastTransferFrom",
          "type": "address"
        },
        {
          "name": "lastTransferNotes",
          "type": "string"
        },
        {
          "name": "price",
          "type": "uint256"
        }
      ],
      "payable": false,
      "stateMutability": "view",
      "type": "function",
      "signature": "0xfe88bac0"
    },
    {
      "constant": false,
      "inputs": [
        {
          "name": "title",
          "type": "string"
        },
        {
          "name": "author",
          "type": "string"
        },
        {
          "name": "publishedDate",
          "type": "uint256"
        },
        {
          "name": "price",
          "type": "uint256"
        },
        {
          "name": "notes",
          "type": "string"
        }
      ],
      "name": "sellBook",
      "outputs": [],
      "payable": false,
      "stateMutability": "nonpayable",
      "type": "function",
      "signature": "0x61912ae4"
    },
    {
      "constant": false,
      "inputs": [
        {
          "name": "title",
          "type": "string"
        },
        {
          "name": "author",
          "type": "string"
        },
        {
          "name": "publishedDate",
          "type": "uint256"
        }
      ],
      "name": "buyBook",
      "outputs": [],
      "payable": true,
      "stateMutability": "payable",
      "type": "function",
      "signature": "0xe43363d1"
    },
    {
      "constant": false,
      "inputs": [],
      "name": "withdraw",
      "outputs": [],
      "payable": false,
      "stateMutability": "nonpayable",
      "type": "function",
      "signature": "0x3ccfd60b"
    }
  ],
  "bytecode": "0x60806040526000600160146101000a81548160ff02191690831515021790555034801561002b57600080fd5b50604051602080620045ad8339810180604052602081101561004c57600080fd5b810190808051906020019092919050505060018060146101000a81548160ff02191690831515021790555033600160006101000a81548173ffffffffffffffffffffffffffffffffffffffff021916908373ffffffffffffffffffffffffffffffffffffffff160217905550806000806101000a81548173ffffffffffffffffffffffffffffffffffffffff021916908373ffffffffffffffffffffffffffffffffffffffff160217905550506144a480620001096000396000f3fe6080604052600436106100c5576000357c0100000000000000000000000000000000000000000000000000000000900463ffffffff16806301746484146100ca5780630a40108614610127578063110466ed1461015657806332b93a86146101935780633ccfd60b146101ea57806358d370b7146102015780635a9508171461033b5780635df490c31461042057806361912ae414610505578063a0a34b7414610649578063b841906b146107c6578063e43363d114610920578063fe88bac0146109f8575b600080fd5b3480156100d657600080fd5b50610125600480360360408110156100ed57600080fd5b81019080803573ffffffffffffffffffffffffffffffffffffffff169060200190929190803515159060200190929190505050610c08565b005b34801561013357600080fd5b5061013c611177565b604051808215151515815260200191505060405180910390f35b34801561016257600080fd5b506101916004803603602081101561017957600080fd5b8101908080351515906020019092919050505061118a565b005b34801561019f57600080fd5b506101a861131f565b604051808273ffffffffffffffffffffffffffffffffffffffff1673ffffffffffffffffffffffffffffffffffffffff16815260200191505060405180910390f35b3480156101f657600080fd5b506101ff611345565b005b34801561020d57600080fd5b506103396004803603608081101561022457600080fd5b810190808035906020019064010000000081111561024157600080fd5b82018360208201111561025357600080fd5b8035906020019184600183028401116401000000008311171561027557600080fd5b90919293919293908035906020019064010000000081111561029657600080fd5b8201836020820111156102a857600080fd5b803590602001918460018302840111640100000000831117156102ca57600080fd5b909192939192939080359060200190929190803590602001906401000000008111156102f557600080fd5b82018360208201111561030757600080fd5b8035906020019184600183028401116401000000008311171561032957600080fd5b9091929391929390505050611528565b005b34801561034757600080fd5b5061041e6004803603606081101561035e57600080fd5b810190808035906020019064010000000081111561037b57600080fd5b82018360208201111561038d57600080fd5b803590602001918460018302840111640100000000831117156103af57600080fd5b9091929391929390803590602001906401000000008111156103d057600080fd5b8201836020820111156103e257600080fd5b8035906020019184600183028401116401000000008311171561040457600080fd5b909192939192939080359060200190929190505050611dec565b005b34801561042c57600080fd5b506105036004803603606081101561044357600080fd5b810190808035906020019064010000000081111561046057600080fd5b82018360208201111561047257600080fd5b8035906020019184600183028401116401000000008311171561049457600080fd5b9091929391929390803590602001906401000000008111156104b557600080fd5b8201836020820111156104c757600080fd5b803590602001918460018302840111640100000000831117156104e957600080fd5b909192939192939080359060200190929190505050612267565b005b34801561051157600080fd5b50610647600480360360a081101561052857600080fd5b810190808035906020019064010000000081111561054557600080fd5b82018360208201111561055757600080fd5b8035906020019184600183028401116401000000008311171561057957600080fd5b90919293919293908035906020019064010000000081111561059a57600080fd5b8201836020820111156105ac57600080fd5b803590602001918460018302840111640100000000831117156105ce57600080fd5b909192939192939080359060200190929190803590602001909291908035906020019064010000000081111561060357600080fd5b82018360208201111561061557600080fd5b8035906020019184600183028401116401000000008311171561063757600080fd5b90919293919293905050506128ab565b005b34801561065557600080fd5b506107b06004803603606081101561066c57600080fd5b810190808035906020019064010000000081111561068957600080fd5b82018360208201111561069b57600080fd5b803590602001918460018302840111640100000000831117156106bd57600080fd5b91908080601f016020809104026020016040519081016040528093929190818152602001838380828437600081840152601f19601f8201169050808301925050505050505091929192908035906020019064010000000081111561072057600080fd5b82018360208201111561073257600080fd5b8035906020019184600183028401116401000000008311171561075457600080fd5b91908080601f016020809104026020016040519081016040528093929190818152602001838380828437600081840152601f19601f82011690508083019250505050505050919291929080359060200190929190505050612fc0565b6040518082815260200191505060405180910390f35b3480156107d257600080fd5b5061091e600480360360a08110156107e957600080fd5b81019080803573ffffffffffffffffffffffffffffffffffffffff1690602001909291908035906020019064010000000081111561082657600080fd5b82018360208201111561083857600080fd5b8035906020019184600183028401116401000000008311171561085a57600080fd5b90919293919293908035906020019064010000000081111561087b57600080fd5b82018360208201111561088d57600080fd5b803590602001918460018302840111640100000000831117156108af57600080fd5b909192939192939080359060200190929190803590602001906401000000008111156108da57600080fd5b8201836020820111156108ec57600080fd5b8035906020019184600183028401116401000000008311171561090e57600080fd5b909192939192939050505061309c565b005b6109f66004803603606081101561093657600080fd5b810190808035906020019064010000000081111561095357600080fd5b82018360208201111561096557600080fd5b8035906020019184600183028401116401000000008311171561098757600080fd5b9091929391929390803590602001906401000000008111156109a857600080fd5b8201836020820111156109ba57600080fd5b803590602001918460018302840111640100000000831117156109dc57600080fd5b909192939192939080359060200190929190505050613899565b005b348015610a0457600080fd5b50610adb60048036036060811015610a1b57600080fd5b8101908080359060200190640100000000811115610a3857600080fd5b820183602082011115610a4a57600080fd5b80359060200191846001830284011164010000000083111715610a6c57600080fd5b909192939192939080359060200190640100000000811115610a8d57600080fd5b820183602082011115610a9f57600080fd5b80359060200191846001830284011164010000000083111715610ac157600080fd5b909192939192939080359060200190929190505050613e61565b604051808873ffffffffffffffffffffffffffffffffffffffff1673ffffffffffffffffffffffffffffffffffffffff1681526020018773ffffffffffffffffffffffffffffffffffffffff1673ffffffffffffffffffffffffffffffffffffffff168152602001861515151581526020018581526020018473ffffffffffffffffffffffffffffffffffffffff1673ffffffffffffffffffffffffffffffffffffffff16815260200180602001838152602001828103825284818151815260200191508051906020019080838360005b83811015610bc7578082015181840152602081019050610bac565b50505050905090810190601f168015610bf45780820380516001836020036101000a031916815260200191505b509850505050505050505060405180910390f35b6000809054906101000a900473ffffffffffffffffffffffffffffffffffffffff1673ffffffffffffffffffffffffffffffffffffffff166399abc8eb6040518163ffffffff167c010000000000000000000000000000000000000000000000000000000002815260040160206040518083038186803b158015610c8b57600080fd5b505afa158015610c9f573d6000803e3d6000fd5b505050506040513d6020811015610cb557600080fd5b810190808051906020019092919050505073ffffffffffffffffffffffffffffffffffffffff163373ffffffffffffffffffffffffffffffffffffffff16141515610d8e576040517f08c379a000000000000000000000000000000000000000000000000000000000815260040180806020018281038252602e8152602001807f4f6e6c7920746865206c696272617279206f776e65722063616e20706572666f81526020017f726d207468697320616374696f6e00000000000000000000000000000000000081525060400191505060405180910390fd5b600160149054906101000a900460ff161515610e38576040517f08c379a00000000000000000000000000000000000000000000000000000000081526004018080602001828103825260258152602001807f436f6e74726163742069732063757272656e746c79206e6f74206f706572617481526020017f696f6e616c00000000000000000000000000000000000000000000000000000081525060400191505060405180910390fd5b818160008060009054906101000a900473ffffffffffffffffffffffffffffffffffffffff1673ffffffffffffffffffffffffffffffffffffffff1663c3c5a547846040518263ffffffff167c0100000000000000000000000000000000000000000000000000000000028152600401808273ffffffffffffffffffffffffffffffffffffffff1673ffffffffffffffffffffffffffffffffffffffff16815260200191505060206040518083038186803b158015610ef657600080fd5b505afa158015610f0a573d6000803e3d6000fd5b505050506040513d6020811015610f2057600080fd5b8101908080519060200190929190505050905080151582151514151515611021576040517f08c379a00000000000000000000000000000000000000000000000000000000081526004018080602001828103825260668152602001807f54686973206c696272617269616e20697320616c72656164792072656769737481526020017f657265642028696620747279696e6720746f2061646429206f72206973206e6f81526020017f742072656769737465726564207965742028696620747279696e6720746f207281526020017f656d6f766529000000000000000000000000000000000000000000000000000081525060800191505060405180910390fd5b6000809054906101000a900473ffffffffffffffffffffffffffffffffffffffff1673ffffffffffffffffffffffffffffffffffffffff16630174648486866040518363ffffffff167c0100000000000000000000000000000000000000000000000000000000028152600401808373ffffffffffffffffffffffffffffffffffffffff1673ffffffffffffffffffffffffffffffffffffffff1681526020018215151515815260200192505050600060405180830381600087803b1580156110e957600080fd5b505af11580156110fd573d6000803e3d6000fd5b505050507f3e6a45ec201157bb776e57c6c277cef1ccd2c84f3995ea7fceba923b1d45cc3f8585604051808373ffffffffffffffffffffffffffffffffffffffff1673ffffffffffffffffffffffffffffffffffffffff168152602001821515151581526020019250505060405180910390a15050505050565b600160149054906101000a900460ff1681565b600160009054906101000a900473ffffffffffffffffffffffffffffffffffffffff1673ffffffffffffffffffffffffffffffffffffffff163373ffffffffffffffffffffffffffffffffffffffff1614151561124f576040517f08c379a00000000000000000000000000000000000000000000000000000000081526004018080602001828103825260178152602001807f43616c6c6572206973206e6f7420417070206f776e657200000000000000000081525060200191505060405180910390fd5b80600160149054906101000a900460ff16151581151514151515611301576040517f08c379a00000000000000000000000000000000000000000000000000000000081526004018080602001828103825260278152602001807f436f6e747261637420616c726561647920696e2074686520737461746520726581526020017f717565737465640000000000000000000000000000000000000000000000000081525060400191505060405180910390fd5b81600160146101000a81548160ff0219169083151502179055505050565b600160009054906101000a900473ffffffffffffffffffffffffffffffffffffffff1681565b600160149054906101000a900460ff1615156113ef576040517f08c379a00000000000000000000000000000000000000000000000000000000081526004018080602001828103825260258152602001807f436f6e74726163742069732063757272656e746c79206e6f74206f706572617481526020017f696f6e616c00000000000000000000000000000000000000000000000000000081525060400191505060405180910390fd5b6000809054906101000a900473ffffffffffffffffffffffffffffffffffffffff1673ffffffffffffffffffffffffffffffffffffffff166351cff8d9336040518263ffffffff167c0100000000000000000000000000000000000000000000000000000000028152600401808273ffffffffffffffffffffffffffffffffffffffff1673ffffffffffffffffffffffffffffffffffffffff168152602001915050600060405180830381600087803b1580156114ab57600080fd5b505af11580156114bf573d6000803e3d6000fd5b505050507fb513ded1b789eae3295f6834e90c165f7259d31e80787c0794e8745ca3574b2c33604051808273ffffffffffffffffffffffffffffffffffffffff1673ffffffffffffffffffffffffffffffffffffffff16815260200191505060405180910390a1565b600160149054906101000a900460ff1615156115d2576040517f08c379a00000000000000000000000000000000000000000000000000000000081526004018080602001828103825260258152602001807f436f6e74726163742069732063757272656e746c79206e6f74206f706572617481526020017f696f6e616c00000000000000000000000000000000000000000000000000000081525060400191505060405180910390fd5b86868080601f016020809104026020016040519081016040528093929190818152602001838380828437600081840152601f19601f8201169050808301925050505050505085858080601f016020809104026020016040519081016040528093929190818152602001838380828437600081840152601f19601f8201169050808301925050505050505084600061166a848484612fc0565b90506000809054906101000a900473ffffffffffffffffffffffffffffffffffffffff1673ffffffffffffffffffffffffffffffffffffffff1663e8126370826040518263ffffffff167c01000000000000000000000000000000000000000000000000000000000281526004018082815260200191505060206040518083038186803b1580156116fa57600080fd5b505afa15801561170e573d6000803e3d6000fd5b505050506040513d602081101561172457600080fd5b810190808051906020019092919050505015156117cf576040517f08c379a00000000000000000000000000000000000000000000000000000000081526004018080602001828103825260248152602001807f5468697320626f6f6b206973206e6f742070617274206f6620746865206c696281526020017f726172790000000000000000000000000000000000000000000000000000000081525060400191505060405180910390fd5b6000809054906101000a900473ffffffffffffffffffffffffffffffffffffffff1673ffffffffffffffffffffffffffffffffffffffff1663c3c5a547336040518263ffffffff167c0100000000000000000000000000000000000000000000000000000000028152600401808273ffffffffffffffffffffffffffffffffffffffff1673ffffffffffffffffffffffffffffffffffffffff16815260200191505060206040518083038186803b15801561188957600080fd5b505afa15801561189d573d6000803e3d6000fd5b505050506040513d60208110156118b357600080fd5b810190808051906020019092919050505015151561195f576040517f08c379a00000000000000000000000000000000000000000000000000000000081526004018080602001828103825260228152602001807f4c696272617269616e732063616e6e6f74206272696e67206261636b20626f6f81526020017f6b7300000000000000000000000000000000000000000000000000000000000081525060400191505060405180910390fd5b60006119f48c8c8080601f016020809104026020016040519081016040528093929190818152602001838380828437600081840152601f19601f820116905080830192505050505050508b8b8080601f016020809104026020016040519081016040528093929190818152602001838380828437600081840152601f19601f820116905080830192505050505050508a612fc0565b90506000809054906101000a900473ffffffffffffffffffffffffffffffffffffffff1673ffffffffffffffffffffffffffffffffffffffff16638b59c733826040518263ffffffff167c01000000000000000000000000000000000000000000000000000000000281526004018082815260200191505060206040518083038186803b158015611a8457600080fd5b505afa158015611a98573d6000803e3d6000fd5b505050506040513d6020811015611aae57600080fd5b81019080805190602001909291905050501515611b33576040517f08c379a000000000000000000000000000000000000000000000000000000000815260040180806020018281038252601f8152602001807f5468697320626f6f6b20697320616c726561647920636865636b656420696e0081525060200191505060405180910390fd5b6000809054906101000a900473ffffffffffffffffffffffffffffffffffffffff1673ffffffffffffffffffffffffffffffffffffffff1663c28e5b50828989336040518563ffffffff167c010000000000000000000000000000000000000000000000000000000002815260040180858152602001806020018373ffffffffffffffffffffffffffffffffffffffff1673ffffffffffffffffffffffffffffffffffffffff1681526020018281038252858582818152602001925080828437600081840152601f19601f82011690508083019250505095505050505050600060405180830381600087803b158015611c2b57600080fd5b505af1158015611c3f573d6000803e3d6000fd5b505050507f46000173342ee4cc6dec976ff964300c3556838a9888bb93ebfcca8e8e3ef96c8c8c8c8c8c6000809054906101000a900473ffffffffffffffffffffffffffffffffffffffff1673ffffffffffffffffffffffffffffffffffffffff166338ae8bbe886040518263ffffffff167c01000000000000000000000000000000000000000000000000000000000281526004018082815260200191505060206040518083038186803b158015611cf757600080fd5b505afa158015611d0b573d6000803e3d6000fd5b505050506040513d6020811015611d2157600080fd5b81019080805190602001909291905050506040518080602001806020018581526020018473ffffffffffffffffffffffffffffffffffffffff1673ffffffffffffffffffffffffffffffffffffffff1681526020018381038352898982818152602001925080828437600081840152601f19601f8201169050808301925050508381038252878782818152602001925080828437600081840152601f19601f8201169050808301925050509850505050505050505060405180910390a1505050505050505050505050565b600160149054906101000a900460ff161515611e96576040517f08c379a00000000000000000000000000000000000000000000000000000000081526004018080602001828103825260258152602001807f436f6e74726163742069732063757272656e746c79206e6f74206f706572617481526020017f696f6e616c00000000000000000000000000000000000000000000000000000081525060400191505060405180910390fd5b6000809054906101000a900473ffffffffffffffffffffffffffffffffffffffff1673ffffffffffffffffffffffffffffffffffffffff1663c3c5a547336040518263ffffffff167c0100000000000000000000000000000000000000000000000000000000028152600401808273ffffffffffffffffffffffffffffffffffffffff1673ffffffffffffffffffffffffffffffffffffffff16815260200191505060206040518083038186803b158015611f5057600080fd5b505afa158015611f64573d6000803e3d6000fd5b505050506040513d6020811015611f7a57600080fd5b81019080805190602001909291905050501515612025576040517f08c379a00000000000000000000000000000000000000000000000000000000081526004018080602001828103825260368152602001807f4d7573742062652072656769737465726564206173206c696272617269616e2081526020017f746f20706572666f726d207468697320616374696f6e0000000000000000000081525060400191505060405180910390fd5b6000809054906101000a900473ffffffffffffffffffffffffffffffffffffffff1673ffffffffffffffffffffffffffffffffffffffff166346ebc5e08686868686336040518763ffffffff167c01000000000000000000000000000000000000000000000000000000000281526004018080602001806020018581526020018473ffffffffffffffffffffffffffffffffffffffff1673ffffffffffffffffffffffffffffffffffffffff1681526020018381038352898982818152602001925080828437600081840152601f19601f8201169050808301925050508381038252878782818152602001925080828437600081840152601f19601f82011690508083019250505098505050505050505050602060405180830381600087803b15801561215157600080fd5b505af1158015612165573d6000803e3d6000fd5b505050506040513d602081101561217b57600080fd5b8101908080519060200190929190505050507f1101fdbc4c93937df772db09e0ce91eecd984be6cd25001914d3db63e1823fd88585858585336040518080602001806020018581526020018473ffffffffffffffffffffffffffffffffffffffff1673ffffffffffffffffffffffffffffffffffffffff1681526020018381038352898982818152602001925080828437600081840152601f19601f8201169050808301925050508381038252878782818152602001925080828437600081840152601f19601f8201169050808301925050509850505050505050505060405180910390a15050505050565b600160149054906101000a900460ff161515612311576040517f08c379a00000000000000000000000000000000000000000000000000000000081526004018080602001828103825260258152602001807f436f6e74726163742069732063757272656e746c79206e6f74206f706572617481526020017f696f6e616c00000000000000000000000000000000000000000000000000000081525060400191505060405180910390fd5b6000809054906101000a900473ffffffffffffffffffffffffffffffffffffffff1673ffffffffffffffffffffffffffffffffffffffff1663c3c5a547336040518263ffffffff167c0100000000000000000000000000000000000000000000000000000000028152600401808273ffffffffffffffffffffffffffffffffffffffff1673ffffffffffffffffffffffffffffffffffffffff16815260200191505060206040518083038186803b1580156123cb57600080fd5b505afa1580156123df573d6000803e3d6000fd5b505050506040513d60208110156123f557600080fd5b810190808051906020019092919050505015156124a0576040517f08c379a00000000000000000000000000000000000000000000000000000000081526004018080602001828103825260368152602001807f4d7573742062652072656769737465726564206173206c696272617269616e2081526020017f746f20706572666f726d207468697320616374696f6e0000000000000000000081525060400191505060405180910390fd5b84848080601f016020809104026020016040519081016040528093929190818152602001838380828437600081840152601f19601f8201169050808301925050505050505083838080601f016020809104026020016040519081016040528093929190818152602001838380828437600081840152601f19601f82011690508083019250505050505050826000612538848484612fc0565b90506000809054906101000a900473ffffffffffffffffffffffffffffffffffffffff1673ffffffffffffffffffffffffffffffffffffffff1663e8126370826040518263ffffffff167c01000000000000000000000000000000000000000000000000000000000281526004018082815260200191505060206040518083038186803b1580156125c857600080fd5b505afa1580156125dc573d6000803e3d6000fd5b505050506040513d60208110156125f257600080fd5b8101908080519060200190929190505050151561269d576040517f08c379a00000000000000000000000000000000000000000000000000000000081526004018080602001828103825260248152602001807f5468697320626f6f6b206973206e6f742070617274206f6620746865206c696281526020017f726172790000000000000000000000000000000000000000000000000000000081525060400191505060405180910390fd5b60006127328a8a8080601f016020809104026020016040519081016040528093929190818152602001838380828437600081840152601f19601f8201169050808301925050505050505089898080601f016020809104026020016040519081016040528093929190818152602001838380828437600081840152601f19601f8201169050808301925050505050505088612fc0565b90506000809054906101000a900473ffffffffffffffffffffffffffffffffffffffff1673ffffffffffffffffffffffffffffffffffffffff166363dcd599826040518263ffffffff167c010000000000000000000000000000000000000000000000000000000002815260040180828152602001915050602060405180830381600087803b1580156127c457600080fd5b505af11580156127d8573d6000803e3d6000fd5b505050506040513d60208110156127ee57600080fd5b8101908080519060200190929190505050507fc18bdd3f039f64d2895c1f340e0b6f485dfe9aced5c67b4f2486cfd3c381c5068a8a8a8a8a6040518080602001806020018481526020018381038352888882818152602001925080828437600081840152601f19601f8201169050808301925050508381038252868682818152602001925080828437600081840152601f19601f82011690508083019250505097505050505050505060405180910390a150505050505050505050565b87878080601f016020809104026020016040519081016040528093929190818152602001838380828437600081840152601f19601f8201169050808301925050505050505086868080601f016020809104026020016040519081016040528093929190818152602001838380828437600081840152601f19601f82011690508083019250505050505050856000612943848484612fc0565b90506000809054906101000a900473ffffffffffffffffffffffffffffffffffffffff1673ffffffffffffffffffffffffffffffffffffffff1663e8126370826040518263ffffffff167c01000000000000000000000000000000000000000000000000000000000281526004018082815260200191505060206040518083038186803b1580156129d357600080fd5b505afa1580156129e7573d6000803e3d6000fd5b505050506040513d60208110156129fd57600080fd5b81019080805190602001909291905050501515612aa8576040517f08c379a00000000000000000000000000000000000000000000000000000000081526004018080602001828103825260248152602001807f5468697320626f6f6b206973206e6f742070617274206f6620746865206c696281526020017f726172790000000000000000000000000000000000000000000000000000000081525060400191505060405180910390fd5b600160149054906101000a900460ff161515612b52576040517f08c379a00000000000000000000000000000000000000000000000000000000081526004018080602001828103825260258152602001807f436f6e74726163742069732063757272656e746c79206e6f74206f706572617481526020017f696f6e616c00000000000000000000000000000000000000000000000000000081525060400191505060405180910390fd5b600087111515612bca576040517f08c379a00000000000000000000000000000000000000000000000000000000081526004018080602001828103825260168152602001807f53616c65207072696365206d757374206265203e20300000000000000000000081525060200191505060405180910390fd5b6000612c5f8d8d8080601f016020809104026020016040519081016040528093929190818152602001838380828437600081840152601f19601f820116905080830192505050505050508c8c8080601f016020809104026020016040519081016040528093929190818152602001838380828437600081840152601f19601f820116905080830192505050505050508b612fc0565b90503373ffffffffffffffffffffffffffffffffffffffff166000809054906101000a900473ffffffffffffffffffffffffffffffffffffffff1673ffffffffffffffffffffffffffffffffffffffff16633ae59206836040518263ffffffff167c01000000000000000000000000000000000000000000000000000000000281526004018082815260200191505060206040518083038186803b158015612d0657600080fd5b505afa158015612d1a573d6000803e3d6000fd5b505050506040513d6020811015612d3057600080fd5b810190808051906020019092919050505073ffffffffffffffffffffffffffffffffffffffff16141515612df2576040517f08c379a00000000000000000000000000000000000000000000000000000000081526004018080602001828103825260258152602001807f596f752063616e6e6f742073616c65206120626f6f6b20796f7520646f206e6f81526020017f74206f776e00000000000000000000000000000000000000000000000000000081525060400191505060405180910390fd5b6000809054906101000a900473ffffffffffffffffffffffffffffffffffffffff1673ffffffffffffffffffffffffffffffffffffffff1663f0950eb1828a338b8b6040518663ffffffff167c0100000000000000000000000000000000000000000000000000000000028152600401808681526020018581526020018473ffffffffffffffffffffffffffffffffffffffff1673ffffffffffffffffffffffffffffffffffffffff168152602001806020018281038252848482818152602001925080828437600081840152601f19601f8201169050808301925050509650505050505050600060405180830381600087803b158015612ef257600080fd5b505af1158015612f06573d6000803e3d6000fd5b505050507fa00922436d4d5f4077b8f402608fafbec99390efede9fa71aa0aa62e140c8f398d8d8d8d8d8d6040518080602001806020018581526020018481526020018381038352898982818152602001925080828437600081840152601f19601f8201169050808301925050508381038252878782818152602001925080828437600081840152601f19601f8201169050808301925050509850505050505050505060405180910390a150505050505050505050505050565b60008383836040516020018084805190602001908083835b602083101515612ffd5780518252602082019150602081019050602083039250612fd8565b6001836020036101000a03801982511681845116808217855250505050505090500183805190602001908083835b602083101515613050578051825260208201915060208101905060208303925061302b565b6001836020036101000a03801982511681845116808217855250505050505090500182815260200193505050506040516020818303038152906040528051906020012090509392505050565b6000809054906101000a900473ffffffffffffffffffffffffffffffffffffffff1673ffffffffffffffffffffffffffffffffffffffff1663c3c5a547336040518263ffffffff167c0100000000000000000000000000000000000000000000000000000000028152600401808273ffffffffffffffffffffffffffffffffffffffff1673ffffffffffffffffffffffffffffffffffffffff16815260200191505060206040518083038186803b15801561315657600080fd5b505afa15801561316a573d6000803e3d6000fd5b505050506040513d602081101561318057600080fd5b8101908080519060200190929190505050151561322b576040517f08c379a00000000000000000000000000000000000000000000000000000000081526004018080602001828103825260368152602001807f4d7573742062652072656769737465726564206173206c696272617269616e2081526020017f746f20706572666f726d207468697320616374696f6e0000000000000000000081525060400191505060405180910390fd5b600160149054906101000a900460ff1615156132d5576040517f08c379a00000000000000000000000000000000000000000000000000000000081526004018080602001828103825260258152602001807f436f6e74726163742069732063757272656e746c79206e6f74206f706572617481526020017f696f6e616c00000000000000000000000000000000000000000000000000000081525060400191505060405180910390fd5b86868080601f016020809104026020016040519081016040528093929190818152602001838380828437600081840152601f19601f8201169050808301925050505050505085858080601f016020809104026020016040519081016040528093929190818152602001838380828437600081840152601f19601f8201169050808301925050505050505084600061336d848484612fc0565b90506000809054906101000a900473ffffffffffffffffffffffffffffffffffffffff1673ffffffffffffffffffffffffffffffffffffffff1663e8126370826040518263ffffffff167c01000000000000000000000000000000000000000000000000000000000281526004018082815260200191505060206040518083038186803b1580156133fd57600080fd5b505afa158015613411573d6000803e3d6000fd5b505050506040513d602081101561342757600080fd5b810190808051906020019092919050505015156134d2576040517f08c379a00000000000000000000000000000000000000000000000000000000081526004018080602001828103825260248152602001807f5468697320626f6f6b206973206e6f742070617274206f6620746865206c696281526020017f726172790000000000000000000000000000000000000000000000000000000081525060400191505060405180910390fd5b60006135678c8c8080601f016020809104026020016040519081016040528093929190818152602001838380828437600081840152601f19601f820116905080830192505050505050508b8b8080601f016020809104026020016040519081016040528093929190818152602001838380828437600081840152601f19601f820116905080830192505050505050508a612fc0565b90506000809054906101000a900473ffffffffffffffffffffffffffffffffffffffff1673ffffffffffffffffffffffffffffffffffffffff16638b59c733826040518263ffffffff167c01000000000000000000000000000000000000000000000000000000000281526004018082815260200191505060206040518083038186803b1580156135f757600080fd5b505afa15801561360b573d6000803e3d6000fd5b505050506040513d602081101561362157600080fd5b81019080805190602001909291905050501515156136a7576040517f08c379a00000000000000000000000000000000000000000000000000000000081526004018080602001828103825260208152602001807f5468697320626f6f6b20697320616c726561647920636865636b6564206f757481525060200191505060405180910390fd5b6000809054906101000a900473ffffffffffffffffffffffffffffffffffffffff1673ffffffffffffffffffffffffffffffffffffffff1663906158498e838a8a6040518563ffffffff167c0100000000000000000000000000000000000000000000000000000000028152600401808573ffffffffffffffffffffffffffffffffffffffff1673ffffffffffffffffffffffffffffffffffffffff168152602001848152602001806020018281038252848482818152602001925080828437600081840152601f19601f82011690508083019250505095505050505050600060405180830381600087803b15801561379f57600080fd5b505af11580156137b3573d6000803e3d6000fd5b505050507fa87071afc06e0faee6aecc208e64c44708b99985dd7037af1d04a1f8c36021018d8d8d8d8d8d604051808773ffffffffffffffffffffffffffffffffffffffff1673ffffffffffffffffffffffffffffffffffffffff16815260200180602001806020018481526020018381038352888882818152602001925080828437600081840152601f19601f8201169050808301925050508381038252868682818152602001925080828437600081840152601f19601f8201169050808301925050509850505050505050505060405180910390a150505050505050505050505050565b600160149054906101000a900460ff161515613943576040517f08c379a00000000000000000000000000000000000000000000000000000000081526004018080602001828103825260258152602001807f436f6e74726163742069732063757272656e746c79206e6f74206f706572617481526020017f696f6e616c00000000000000000000000000000000000000000000000000000081525060400191505060405180910390fd5b60006139d886868080601f016020809104026020016040519081016040528093929190818152602001838380828437600081840152601f19601f8201169050808301925050505050505085858080601f016020809104026020016040519081016040528093929190818152602001838380828437600081840152601f19601f8201169050808301925050505050505084612fc0565b905060008060009054906101000a900473ffffffffffffffffffffffffffffffffffffffff1673ffffffffffffffffffffffffffffffffffffffff1663c2b025eb836040518263ffffffff167c01000000000000000000000000000000000000000000000000000000000281526004018082815260200191505060206040518083038186803b158015613a6a57600080fd5b505afa158015613a7e573d6000803e3d6000fd5b505050506040513d6020811015613a9457600080fd5b8101908080519060200190929190505050905060008060009054906101000a900473ffffffffffffffffffffffffffffffffffffffff1673ffffffffffffffffffffffffffffffffffffffff1663c2b025eb846040518263ffffffff167c01000000000000000000000000000000000000000000000000000000000281526004018082815260200191505060206040518083038186803b158015613b3757600080fd5b505afa158015613b4b573d6000803e3d6000fd5b505050506040513d6020811015613b6157600080fd5b8101908080519060200190929190505050111515613be7576040517f08c379a00000000000000000000000000000000000000000000000000000000081526004018080602001828103825260198152602001807f5468697320626f6f6b206973206e6f7420666f722073616c650000000000000081525060200191505060405180910390fd5b803410151515613c85576040517f08c379a00000000000000000000000000000000000000000000000000000000081526004018080602001828103825260268152602001807f46756e64732073656e7420646f206e6f7420636f7665722074686520626f6f6b81526020017f207072696365000000000000000000000000000000000000000000000000000081525060400191505060405180910390fd5b600081340390503373ffffffffffffffffffffffffffffffffffffffff166108fc829081150290604051600060405180830381858888f19350505050158015613cd2573d6000803e3d6000fd5b506000809054906101000a900473ffffffffffffffffffffffffffffffffffffffff1673ffffffffffffffffffffffffffffffffffffffff16630e84a6483485336040518463ffffffff167c0100000000000000000000000000000000000000000000000000000000028152600401808381526020018273ffffffffffffffffffffffffffffffffffffffff1673ffffffffffffffffffffffffffffffffffffffff168152602001925050506000604051808303818588803b158015613d9757600080fd5b505af1158015613dab573d6000803e3d6000fd5b50505050507fe87f198189f50a9d8128b051e558d2493664408dfab291fb255271252dabbdcd8888888888876040518080602001806020018581526020018481526020018381038352898982818152602001925080828437600081840152601f19601f8201169050808301925050508381038252878782818152602001925080828437600081840152601f19601f8201169050808301925050509850505050505050505060405180910390a15050505050505050565b60008060008060006060600080613f018d8d8080601f016020809104026020016040519081016040528093929190818152602001838380828437600081840152601f19601f820116905080830192505050505050508c8c8080601f016020809104026020016040519081016040528093929190818152602001838380828437600081840152601f19601f820116905080830192505050505050508b612fc0565b90506000809054906101000a900473ffffffffffffffffffffffffffffffffffffffff1673ffffffffffffffffffffffffffffffffffffffff166338ae8bbe826040518263ffffffff167c01000000000000000000000000000000000000000000000000000000000281526004018082815260200191505060206040518083038186803b158015613f9157600080fd5b505afa158015613fa5573d6000803e3d6000fd5b505050506040513d6020811015613fbb57600080fd5b810190808051906020019092919050505097506000809054906101000a900473ffffffffffffffffffffffffffffffffffffffff1673ffffffffffffffffffffffffffffffffffffffff16633ae59206826040518263ffffffff167c01000000000000000000000000000000000000000000000000000000000281526004018082815260200191505060206040518083038186803b15801561405c57600080fd5b505afa158015614070573d6000803e3d6000fd5b505050506040513d602081101561408657600080fd5b810190808051906020019092919050505096506000809054906101000a900473ffffffffffffffffffffffffffffffffffffffff1673ffffffffffffffffffffffffffffffffffffffff16638b59c733826040518263ffffffff167c01000000000000000000000000000000000000000000000000000000000281526004018082815260200191505060206040518083038186803b15801561412757600080fd5b505afa15801561413b573d6000803e3d6000fd5b505050506040513d602081101561415157600080fd5b810190808051906020019092919050505095506000809054906101000a900473ffffffffffffffffffffffffffffffffffffffff1673ffffffffffffffffffffffffffffffffffffffff1663c0f9bc42826040518263ffffffff167c01000000000000000000000000000000000000000000000000000000000281526004018082815260200191505060206040518083038186803b1580156141f257600080fd5b505afa158015614206573d6000803e3d6000fd5b505050506040513d602081101561421c57600080fd5b810190808051906020019092919050505094506000809054906101000a900473ffffffffffffffffffffffffffffffffffffffff1673ffffffffffffffffffffffffffffffffffffffff16635b1b5d908261428160018961445690919063ffffffff16565b6040518363ffffffff167c0100000000000000000000000000000000000000000000000000000000028152600401808381526020018281526020019250505060006040518083038186803b1580156142d857600080fd5b505afa1580156142ec573d6000803e3d6000fd5b505050506040513d6000823e3d601f19601f82011682018060405250604081101561431657600080fd5b8101908080519060200190929190805164010000000081111561433857600080fd5b8281019050602081018481111561434e57600080fd5b815185600182028301116401000000008211171561436b57600080fd5b505092919050505080945081955050506000809054906101000a900473ffffffffffffffffffffffffffffffffffffffff1673ffffffffffffffffffffffffffffffffffffffff1663c2b025eb826040518263ffffffff167c01000000000000000000000000000000000000000000000000000000000281526004018082815260200191505060206040518083038186803b15801561440957600080fd5b505afa15801561441d573d6000803e3d6000fd5b505050506040513d602081101561443357600080fd5b8101908080519060200190929190505050915050959b949a509550955095509550565b600082821115151561446757600080fd5b60008284039050809150509291505056fea165627a7a7230582048b677bc2a116d39486d3e84cc204be006178a66e5e59f476705be9a45b9ca650029",
  "source": "pragma solidity ^0.5.0;\nimport \"../node_modules/openzeppelin-solidity/contracts/math/SafeMath.sol\";\n\n\n// Interface contract\ninterface LibraryData {\n    function setMembership(address librarian, bool add) external;\n\n    function insertBook(\n        string calldata author,\n        string calldata title,\n        uint publishedDate,\n        address originLibrarian\n    )\n    external returns(uint);\n\n    function deleteBook(bytes32 bookKey) external returns (uint);\n\n    function checkOutBook(address borrower, bytes32 bookKey, string calldata notes) external;\n\n    function checkInBook\n    (\n        bytes32 bookKey,\n        string calldata notes,\n        address from\n    )\n    external;\n\n    function sellBook\n    (\n        bytes32 bookKey,\n        uint price,\n        address seller,\n        string calldata notes\n    )\n    external;\n\n    function buyBook(bytes32 bookKey, address buyer) external payable;\n    function withdraw(address recipient) external;\n\n    function libraryOwner() external view returns(address);\n    function isRegistered(address librarian) external view returns(bool);\n\n    function getBookOwner(bytes32 bookKey)\n    external\n    view\n    returns (address);\n\n    function getBookOriginLibrarian(bytes32 bookKey)\n    external\n    view\n    returns (address);\n\n    function isBook(bytes32 bookKey) external view returns(bool);\n    function isCheckedOut(bytes32 bookKey) external view returns (bool);\n    function getTransfer(bytes32 bookKey, uint index) external view returns (address from, string memory notes);\n    function getTransfersCount(bytes32 bookKey) external view returns (uint);\n    function getBookPrice(bytes32 bookKey) external view returns (uint);\n}\n\n\ncontract LibraryApp {\n    using SafeMath for uint;\n\n    // ----------------- VARIABLES\n    LibraryData libraryData;\n    address public appOwner;\n    bool public operational = false;\n    // ----------------- EVENTS\n    event Membership(address librarian, bool added);\n    event BookAdded(string title, string author, uint publishedDate, address originLibrarian);\n    event BookDeleted(string title, string author, uint publishedDate);\n\n    event BookCheckedOut(\n        address borrower,\n        string author,\n        string title,\n        uint publishedDate);\n    event BookCheckedIn(\n        string title,\n        string author,\n        uint publishedDate,\n        address originLibrarian);\n    event BookPutOnSale(\n        string title,\n        string author,\n        uint publishedDate,\n        uint price\n    );\n    event BookSold(\n        string title,\n        string author,\n        uint publishedDate,\n        uint price\n    );\n    event Paid(address recipient);\n\n    // ---------------- CONSTRUCTOR\n    constructor (address libraryDataAddress) public {\n        operational = true;\n        appOwner = msg.sender;\n        libraryData = LibraryData(libraryDataAddress);\n    }\n\n    // ----------------- MODIFIERS\n    modifier isAppOwner() {\n        require(msg.sender == appOwner, \"Caller is not App owner\");\n        _;\n    }\n\n    modifier isLibraryOwner() {\n        require(\n            msg.sender == libraryData.libraryOwner(),\n            \"Only the library owner can perform this action\"\n        );\n        _;\n    }\n\n    modifier isOperational() {\n        require(operational, \"Contract is currently not operational\");\n        _;\n    }\n\n    // To avoid spending gas trying to put the contract in a state it already is in\n    modifier differentModeRequest(bool status) {\n        require(status != operational, \"Contract already in the state requested\");\n        _;\n    }\n\n    /* Similarly we don't want to spend gas trying to add already regsitered librarians\n    or to remove non registered librarians\n    */\n    modifier differentMembershipRequest(address librarian, bool add) {\n        bool registered = libraryData.isRegistered(librarian);\n        require(\n            add != registered,\n            \"This librarian is already registered (if trying to add) or is not registered yet (if trying to remove)\"\n        );\n        _;\n    }\n\n    // Check is a librarian is registered\n    modifier isLibrarian() {\n        require(\n            libraryData.isRegistered(msg.sender),\n            \"Must be registered as librarian to perform this action\"\n        );\n        _;\n    }\n\n    modifier bookExists(\n        string memory title,\n        string memory author,\n        uint publishedDate\n    ) {\n        bytes32 bookKey = getBookKey(title, author, publishedDate);\n        require(libraryData.isBook(bookKey), \"This book is not part of the library\");\n        _;\n    }\n\n    // ----------------- HELPERS FUNCTIONS\n    function getBookKey\n    (\n        string memory title,\n        string memory author,\n        uint publishedDate\n    )\n    public\n    pure\n    returns(bytes32 bookKey)\n    {\n        bookKey = keccak256(abi.encodePacked(title, author, publishedDate));\n    }\n\n    // ----------------- SMART CONTRACT FUNCTIONS\n    function setOperatingStatus(bool mode)\n    external\n    isAppOwner\n    differentModeRequest(mode)\n    {\n        operational = mode;\n    }\n\n    function setMembership(address librarian, bool add)\n    external\n    isLibraryOwner\n    isOperational\n    differentMembershipRequest(librarian, add)\n    {\n        libraryData.setMembership(librarian, add);\n        emit Membership(librarian, add);\n    }\n\n    function insertBook\n    (\n        string calldata title,\n        string calldata author,\n        uint publishedDate\n    )\n    external\n    isOperational\n    isLibrarian\n    {\n        libraryData.insertBook(title, author, publishedDate, msg.sender);\n        emit BookAdded(title, author, publishedDate, msg.sender);\n    }\n\n    function deleteBook\n    (\n        string calldata title,\n        string calldata author,\n        uint publishedDate\n    )\n    external\n    isOperational\n    isLibrarian\n    bookExists(title, author, publishedDate)\n    {\n        bytes32 bookKey = getBookKey(title, author, publishedDate);\n        libraryData.deleteBook(bookKey);\n        emit BookDeleted(title, author, publishedDate);\n    }\n\n    function checkOutBook\n    (\n        address borrower,\n        string calldata title,\n        string calldata author,\n        uint publishedDate,\n        string calldata notes\n    )\n    external\n    isLibrarian\n    isOperational\n    bookExists(title, author, publishedDate)\n    {\n        bytes32 bookKey = getBookKey(title, author, publishedDate);\n        require(\n            !libraryData.isCheckedOut(bookKey),\n            \"This book is already checked out\"\n        );\n        libraryData.checkOutBook(borrower, bookKey, notes);\n        emit BookCheckedOut(\n            borrower,\n            title,\n            author,\n            publishedDate\n        );\n    }\n\n    function checkInBook\n    (\n        string calldata title,\n        string calldata author,\n        uint publishedDate,\n        string calldata notes\n    )\n    external\n    isOperational\n    bookExists(title, author, publishedDate)\n    {\n        // anyone except librarians can check in books\n        require(\n            !libraryData.isRegistered(msg.sender),\n            \"Librarians cannot bring back books\"\n        );\n        bytes32 bookKey = getBookKey(title, author, publishedDate);\n        require(\n            libraryData.isCheckedOut(bookKey),\n            \"This book is already checked in\"\n        );\n        libraryData.checkInBook(bookKey, notes, msg.sender);\n        emit BookCheckedIn(\n            title,\n            author,\n            publishedDate,\n            libraryData.getBookOriginLibrarian(bookKey)\n        );\n\n    }\n\n    function getBook\n    (\n        string calldata title,\n        string calldata author,\n        uint publishedDate\n    )\n    external\n    view\n    returns\n    (\n        /* title, author and publishedDate are not returned:\n        they are already provided as params so they are well know\n        by the caller. Moreover otherwise CompileError: stack is too deep\n        */\n        address originLibrarian,\n        address currentOwner,\n        bool checkedOut,\n        uint transfersCount,\n        address lastTransferFrom,\n        string memory lastTransferNotes,\n        uint price\n    )\n    {\n        bytes32 bookKey = getBookKey(title, author, publishedDate);\n        originLibrarian = libraryData.getBookOriginLibrarian(bookKey);\n        currentOwner = libraryData.getBookOwner(bookKey);\n        checkedOut = libraryData.isCheckedOut(bookKey);\n        transfersCount = libraryData.getTransfersCount(bookKey);\n        (lastTransferFrom, lastTransferNotes) = libraryData.getTransfer(bookKey, transfersCount.sub(1));\n        price = libraryData.getBookPrice(bookKey);\n    }\n\n    function sellBook\n    (\n        string calldata title,\n        string calldata author,\n        uint publishedDate,\n        uint price,\n        string calldata notes\n    )\n    external\n    bookExists(title, author, publishedDate)\n    isOperational\n    {\n        require(price > 0, \"Sale price must be > 0\");\n        bytes32 bookKey = getBookKey(title, author, publishedDate);\n        require(\n            libraryData.getBookOwner(bookKey) == msg.sender,\n            \"You cannot sale a book you do not own\"\n        );\n        libraryData.sellBook(bookKey, price, msg.sender, notes);\n        emit BookPutOnSale(\n            title,\n            author,\n            publishedDate,\n            price\n        );\n    }\n\n    function buyBook\n    (\n        string calldata title,\n        string calldata author,\n        uint publishedDate\n    )\n    external\n    isOperational\n    payable\n    {\n        bytes32 bookKey = getBookKey(title, author, publishedDate);\n        uint price = libraryData.getBookPrice(bookKey);\n        require(\n            libraryData.getBookPrice(bookKey) > 0,\n            \"This book is not for sale\"\n        );\n        require(msg.value >= price, \"Funds sent do not cover the book price\");\n\n        // refund if funds sent too high\n        uint amountToReturn = msg.value - price;\n        msg.sender.transfer(amountToReturn);\n\n        libraryData.buyBook.value(msg.value)(bookKey, msg.sender);\n        emit BookSold(title, author, publishedDate, price);\n    }\n\n    function withdraw()\n    external\n    isOperational\n    {\n        libraryData.withdraw(msg.sender);\n        emit Paid(msg.sender);\n    }\n\n}\n",
  "sourcePath": "/home/gry0u/Blockchain/heritage_code_challenge/contracts/LibraryApp.sol",
  "compiler": {
    "name": "solc",
    "version": "0.5.0+commit.1d4f565a.Emscripten.clang"
  },
  "schemaVersion": "3.0.1",
  "updatedAt": "2019-03-14T23:11:54.865Z",
  "devdoc": {
    "methods": {}
  },
  "userdoc": {
    "methods": {}
  }
}